:020000040000FA
:100000000C94D4010C9405020C9405020C94050286
:100010000C9405020C9405020C9405020C94050244
:100020000C9405020C9405020C9405020C94050234
:100030000C9405020C9405020C9405020C94050224
:100040000C9405020C9405020C9405020C94050214
:100050000C9405020C9405020C9405020C94290FD3
:100060000C9405020C94F30E0C94C90E0C9405022A
:100070000C9405020C9405020C9405020C940502E4
:100080000C9405020C9405020C9405020C940502D4
:100090000C9405020C9405020C9405020C94730F49
:1000A0000C9405020C9405020C9405020C940502B4
:1000B0000C9405020C9405020C9405020C940502A4
:1000C0000C9405020C9405020C9405020C94050294
:1000D0000C9405020C9405020C9405020C94050284
:1000E0000C94050207634236B79BD8A71A396856A5
:1000F00018AEBAAB558C1D3CB7CC5763BD6DEDFD4A
:10010000753EF6177231BF000000803F0800000006
:10011000BE922449123EABAAAA2ABECDCCCC4C3EFC
:1001200000000080BEABAAAAAA3E00000000BF00EB
:100130000000803F0000000000084178D3BB4387E7
:10014000D1133D190E3CC3BD4282AD2B3E68EC82FB
:1001500076BED98FE1A93E4C80EFFFBE01C4FF7F80
:100160003F00000000000C9461020C9432020C94D9
:10017000D9030C94B1190C94E2030C94B0030C94C1
:1001800071020C945F020C94DD030C9462020C94D7
:100190009B060C9485020C946F0D0C9445060C94F0
:1001A000E3030C94BD030C94CB030C94F30D0C945B
:1001B00054060C9497100C9433030C9467060C941B
:1001C000C1030C9499140C94AD040C94B4030C94D6
:1001D000A2030C94420E0C94D5030C94CB020C9405
:1001E000710D0C9493020C9444080C94CF030C945E
:1001F0000F050C9460020C94AC030C94E7030C9470
:10020000B7030C94A8030C94B50D0C946E060C94D3
:100210006D0D0C94C7030000200023002600290068
:100220002C002F003200000100000301060109012B
:1002300000002200250028002B002E003100340091
:1002400002010000050108010B0100000A0B020970
:100250000C0D0E0807030401000000000000000060
:10026000000000000000000000000000000000008E
:10027000000000000000121110000000000000004B
:10028000000000000000000000000000000000006E
:1002900000002100240027002A002D003000330038
:1002A00001010000040107010A01010210202008D9
:1002B00008102040102040800201020108040201C1
:1002C0000102040810204080804020100804020130
:1002D0008004020180402010080402010804020189
:1002E0000102040810204080010204081020408010
:1002F00005050505070508080808020202020A0AA2
:1003000008080404040401010101010101010303BF
:10031000030303030303040707070C0C0C0C0C0C6A
:100320000C0C0202020206060606060606060B0B67
:100330000B0B0B0B0B0B436F756C64206E6F7420F3
:1003400066696E6420612076616C696420424D505C
:100350003238302073656E736F722C20636865636A
:100360006B20776972696E672100424D50323830D8
:10037000207465737400417070726F7820616C74C2
:100380006974756465203D200050726573737572E1
:1003900065203D200054656D7065726174757265ED
:1003A000203D20009710991411241FBECFEFD1E2F9
:1003B000DEBFCDBF00E00CBF24E0A4E9B2E001C085
:1003C0001D92AE37B207E1F712E0A0E0B2E0E8E23A
:1003D000F8E300E00BBF02C007900D92A439B1070B
:1003E000D9F711E0C3EDD1E000E006C02197010983
:1003F000802FFE010E943B19C23DD10780E0080713
:10040000A9F70E9417110C94021C0C940000ECE553
:10041000F3E0A089B18982E08C93A485B5851C9214
:10042000A685B7858FEC8C93108EA489B58986E05C
:100430008C93A289B3898C9180618C93A289B389B2
:100440008C9188608C93A289B3898C9180688C93FD
:100450000288F389E02D80818F7D808308958CBD93
:100460009DBD0895AF92BF92CF92DF92EF92FF921F
:100470000F931F93CF93DF936C017B018B01040FCC
:10048000151FEB015E01AE18BF08C017D10759F068
:100490006991D601ED91FC910190F081E02DC601AA
:1004A0001995892B79F7C501DF91CF911F910F9194
:1004B000FF90EF90DF90CF90BF90AF900895089598
:1004C00008950895FC01538D448D252F30E0842F2D
:1004D00090E0821B930B541710F0CF96089501976C
:1004E0000895FC01918D828D981761F0A28DAE0F59
:1004F000BF2FB11D5D968C91928D9F5F9F73928FE0
:1005000090E008958FEF9FEF0895FC01918D828D0B
:10051000981731F0828DE80FF11D858D90E00895D8
:100520008FEF9FEF0895FC01918D228D892F90E030
:10053000805C9F4F821B91098F73992708958CE5EA
:1005400093E00E94930221E0892B09F420E0822F9E
:100550000895FC01A48DA80FB92FB11DA35ABF4F58
:100560002C91848D90E001968F739927848FA689B2
:10057000B7892C93A089B1898C91837080648C9306
:10058000938D848D981306C00288F389E02D8081B5
:100590008F7D80830895EF92FF920F931F93CF93E7
:1005A000DF93EC0181E0888F9B8D8C8D98131AC0AE
:1005B000E889F989808185FF15C09FB7F894EE8995
:1005C000FF896083E889F9898081837080648083F2
:1005D0009FBF81E090E0DF91CF911F910F91FF903D
:1005E000EF900895F62E0B8D10E00F5F1F4F0F73E5
:1005F0001127E02E8C8D8E110CC00FB607FCFACFA0
:10060000E889F989808185FFF5CFCE010E94A90292
:10061000F1CFEB8DEC0FFD2FF11DE35AFF4FF08270
:100620009FB7F8940B8FEA89FB8980818062CFCFD6
:100630000F931F93CF93DF938C01D0E0C0E0F801BC
:10064000EC0FFD1F6491662341F08CE593E00E945E
:10065000CB02892B11F02196F2CFCE01DF91CF9101
:100660001F910F910895CF93DF93EC01888D88231C
:10067000B9F0AA89BB89E889F9898C9185FD03C005
:10068000808186FD0DC00FB607FCF7CF8C9185FFEA
:10069000F2CF808185FFEDCFCE010E94A902E9CF84
:1006A000DF91CF91089580E090E0892B29F00E949E
:1006B0009F0281110E94000080E090E0892B49F0A8
:1006C00080E090E0892B29F00E94000081110E94B7
:1006D000000080E090E0892B49F080E090E0892BD9
:1006E00029F00E94000081110E94000080E090E04B
:1006F000892B49F080E090E0892B29F00E940000CE
:1007000081110C94000008958150823108F05AC084
:10071000E82FF0E08827E057FC4F8F4F0C943B19EF
:10072000B003B403A203A803AC03E203B703BD0301
:10073000C103C703CB03CF03D503D903E203DD0312
:10074000E303E703809180008F7780938000089512
:10075000809180008F7DF9CF80918000877FF5CFD9
:1007600084B58F7784BD089584B58F7DFBCF80914C
:10077000B0008F778093B00008958091B0008F7D96
:10078000F9CF809190008F778093900008958091A9
:1007900090008F7DF9CF80919000877FF5CF809179
:1007A000A0008F778093A00008958091A0008F7D96
:1007B000F9CF8091A000877FF5CF809120018F77BE
:1007C000809320010895809120018F7DF9CF809141
:1007D0002001877FF5CF1F93CF93DF93282F30E041
:1007E000F901E65BFD4F8491F901E655FD4FD49187
:1007F000F901E051FD4FC491CC23A9F0162F8111CE
:100800000E948403EC2FF0E0EE0FFF1FE05DFD4F30
:10081000A591B4918FB7F894EC91111108C0D095BF
:10082000DE23DC938FBFDF91CF911F910895DE2BE4
:10083000F8CFCF93DF9390E0FC01E655FD4F249174
:1008400080519D4FFC0184918823D1F090E0880F66
:10085000991FFC01E057FD4FA591B491FC01E05DAB
:10086000FD4FC591D49161110EC09FB7F8948C9142
:10087000E22FE0958E238C932881E223E8839FBFAB
:10088000DF91CF9108958FB7F894EC91E22BEC9320
:100890008FBFF6CF3FB7F8948091FD029091FE0292
:1008A000A091FF02B091000326B5A89B05C02F3F81
:1008B00019F00196A11DB11D3FBFBA2FA92F982F86
:1008C0008827BC01CD01620F711D811D911D42E081
:1008D000660F771F881F991F4A95D1F708958F9249
:1008E0009F92AF92BF92CF92DF92EF92FF924B0115
:1008F0005C010E944A046B017C010E944A046C194D
:100900007D098E099F09683E734081059105A8F312
:1009100021E0821A9108A108B10888EEC80E83E090
:10092000D81EE11CF11C81149104A104B10429F723
:10093000FF90EF90DF90CF90BF90AF909F908F90FF
:1009400008952FB7F8946091F9027091FA0280919E
:10095000FB029091FC022FBF08950895AF92BF92C1
:10096000CF92DF92EF92FF920F931F93CF93DF937B
:10097000FC0124892F3F91F46EBD00000DB407FEE9
:10098000FDCFDEB48D2DDF91CF911F910F91FF90A0
:10099000EF90DF90CF90BF90AF900895B62EEC010E
:1009A000D12C07E010E0EE24E394F12CDD0C60E0A4
:1009B0008C890E94EB03B701002E01C0660F0A94D8
:1009C000EAF76B218A890E94EB0361E08C890E941F
:1009D000EB032B8930E0F901E65BFD4F8491F901CF
:1009E000E655FD4FC490F901E051FD4FA490AA20B7
:1009F00081F081110E948403EA2DF0E0EE0FFF1FC9
:100A0000EA5EFD4FA591B491EC91CE2211F068946D
:100A1000D0F80150110908F0C9CFB4CF0895089556
:100A20002091D502260F3327331F21323105ECF4F4
:100A300020915203FC0190E080E0243069F082E0D4
:100A40000895A091D5022191AC014B545D4FA40FA4
:100A5000B52FB11D2C930196861798F38091D5027E
:100A6000680F6093D50280E0089581E008951092A8
:100A7000520381E08093310310922C0361E084E102
:100A80000E94EB0361E085E10E94EB03E9EBF0E0FB
:100A900080818E7F808380818D7F808388E48093B6
:100AA000B80085E48093BC000895CF93DF9391E074
:100AB0009093B4028823B9F0C091B800D091BA00E5
:100AC0008091BC008A7B8093BC0060E084E10E943E
:100AD000EB0360E085E10E94EB030E943705D093B1
:100AE000BA00C093B800DF91CF910895CF92DF9202
:100AF000EF92FF920F931F93CF93DF93D82FC62FC0
:100B0000613208F098C00E944A046B017C01809118
:100B1000520381116BC081E08093520380933103B3
:100B20009FEF9093300310922F039C0F90932E030E
:100B300080932D0380912D03DD0FD82BD0932D03AF
:100B400080912C03813009F078C010922C030E9410
:100B50004A046B017C0180912D038093BB0080913E
:100B6000540390915503A0915603B0915703892BDC
:100B70008A2B8B2BA1F00E944A0400915403109100
:100B8000550320915603309157036C197D098E0946
:100B90009F09061717072807390708F448C08091EE
:100BA000BC0083FDD8CF85EC8093BC000E944A0432
:100BB0006B017C0180915203813009F440C0809127
:100BC0002F038C1710F4C0912F03ECE0F3E0A2E3A5
:100BD000B3E080E08C1355C08C2FDF91CF911F9133
:100BE0000F91FF90EF90DF90CF9008958091540384
:100BF00090915503A0915603B0915703892B8A2BEE
:100C00008B2B09F484CF0E944A0400915403109165
:100C1000550320915603309157036C197D098E09B5
:100C20009F09061717072807390708F070CF80912A
:100C300053030E945505C0E0CFCF85EEB5CF80911C
:100C4000540390915503A0915603B0915703892BFB
:100C50008A2B8B2B09F4AECF0E944A0400915403D7
:100C60001091550320915603309157036C197D095B
:100C70008E099F09061717072807390708F09ACF2A
:100C8000D6CF91919D938F5FA5CFE0910B0380917B
:100C90000A03E81730F4F0E0EE5CFC4F808190E04E
:100CA00008958FEF9FEF089590910B0380910A03B1
:100CB0002FEF3FEF981748F4E92FF0E0EE5CFC4F80
:100CC000208130E09F5F90930B03C90108958091CC
:100CD0000A0390910B03891B990B0895CF92DF9221
:100CE000EF92FF920F931F93CF93DF937C01CB0181
:100CF0008A0120915B03222389F0EB016B01C40E72
:100D0000D51ECC15DD0569F06991D701ED91FC91F7
:100D10000190F081E02DC7011995F3CF642F0E9457
:100D20001005C801DF91CF911F910F91FF90EF90B7
:100D3000DF90CF900895CF93DF931F92CDB7DEB7AA
:100D4000698320915B032223F9F02091580320321C
:100D500058F021E030E0FC013383228390E080E012
:100D60000F90DF91CF91089580915903E82FF0E023
:100D7000EC56FD4F998190838F5F80935903809348
:100D8000580381E090E0ECCF61E0CE0101960E9433
:100D90001005F7CFCF92DF92EF92FF920F931F9340
:100DA000CF93DF93D091580381E0D13208F09CC0FB
:100DB000C0915A030E944A046B017C018091520346
:100DC00081116CC082E08093520381E080933103F3
:100DD0008FEF8093300310922F03D0932E03A4E95A
:100DE000B2E0ECE0F3E080E0D8138DC010922D0368
:100DF00080912D03CC0FC82BC0932D0380912C0321
:100E0000813009F084C010922C030E944A046B01C7
:100E10007C0180912D038093BB00809154039091BD
:100E20005503A0915603B0915703892B8A2B8B2B26
:100E3000A1F00E944A04009154031091550320919F
:100E40005603309157036C197D098E099F090617C7
:100E500017072807390708F442C08091BC0083FDBA
:100E6000D8CF85EC8093BC000E944A046B017C01C2
:100E700080915203823009F44CC0809130038F3F3F
:100E800009F469C080913003803209F466C0809112
:100E90003003803309F463C084E026C0809154039A
:100EA00090915503A0915603B0915703892B8A2B3B
:100EB0008B2B09F483CF0E944A04009154031091B4
:100EC000550320915603309157036C197D098E0903
:100ED0009F09061717072807390708F06FCF809179
:100EE00053030E94550585E0109259031092580350
:100EF00010925B03DF91CF911F910F91FF90EF90C4
:100F0000DF90CF9008959D9191938F5F6DCF85EE87
:100F1000A9CF8091540390915503A0915603B091AD
:100F20005703892B8A2B8B2B09F4A2CF0E944A04EA
:100F300000915403109155032091560330915703AB
:100F40006C197D098E099F090617170728073907AD
:100F500008F08ECFC4CF80E0C7CF82E0C5CF83E05A
:100F6000C3CFCF93DF93C82FD62F80915C048F3FE0
:100F700059F580914B0490914C042091530431E039
:100F800030935B0320935A03109259031092580335
:100F9000DC01ED91FC910190F081E02D6C2F199511
:100FA00080914B0490914C04DC01ED91FC910190F7
:100FB000F081E02D6D2F199580914B0490914C0498
:100FC000DF91CF910C94CA0680915F048F3F21F48A
:100FD00082E591E00E942F0260E080915C040E9413
:100FE000EB036C2F6F778BE494E00E94AE046D2FBF
:100FF0008BE494E00E94AE0461E080915C04DF9198
:10100000CF910C94EB03CF93DF93C9E7D4E08770C3
:10101000886E8883E8E7F4E0962F9770990F990F10
:10102000990F8081807C242F2770892B822B8083CD
:1010300095E0440F551F9A95E1F787FB882780F9C3
:10104000482B660F771F660F771F642B85EF0E9472
:10105000B1078881682F677090E2699FB001112401
:10106000282F269526952695277094E0299F900194
:101070001124622B8295869586958370682B84EF68
:10108000DF91CF910C94B10790E080E00895FC01CE
:1010900001900020E9F73197AF01481B590BBC01C3
:1010A0008CE593E00C9432028F929F92AF92BF92A4
:1010B0000F931F93CF93DF93CDB7DEB7A1970FB6F2
:1010C000F894DEBF0FBECDBF19A2423008F44AE04B
:1010D0008E010F5D1F4F842E912CB12CA12CA501E8
:1010E00094010E940E16E62FB901CA01EA30F4F409
:1010F000E05DD801EE938D01232B242B252B79F76E
:1011000090E080E0109719F0CD010E944708A19669
:101110000FB6F894DEBF0FBECDBFDF91CF911F9108
:101120000F91BF90AF909F908F900895E95CE1CFB1
:10113000CF93DF930E944708EC0186E492E00E947F
:1011400047088C0F9D1FDF91CF9108958F929F923A
:10115000AF92BF92CF92DF92EF92FF92CF93DF9345
:10116000EC01F62E89898F3F09F065C0888199814D
:10117000288531E030935B0320935A031092590382
:1011800010925803DC01ED91FC910190F081E02D6B
:101190001995888199810E94CA0663E088850E941A
:1011A000760510920B0380930A0388819981DC01F4
:1011B000ED91FC910284F385E02D19954C01990F76
:1011C000AA08BB08BA2CA92C982C8824888199815C
:1011D000DC01ED91FC910284F385E02D1995092E37
:1011E000000CAA0BBB0B882A992AAA2ABB2ABA2C64
:1011F000A92C982C882488819981DC01ED91FC919F
:101200000284F385E02D1995092E000CAA0BBB0B67
:101210006C017D01C828D928EA28FB28C701B6013E
:10122000DF91CF91FF90EF90DF90CF90BF90AF9084
:101230009F908F9008958C898F3F21F482E591E0F3
:101240000E942F0260E089890E94EB036F2DCE017E
:101250000E94AE0460E0CE010E94AE0490E0B0E0D7
:10126000A0E0CC24D82EE92EFA2E60E0CE010E9418
:10127000AE04C82AFE2CED2CDC2CCC2460E0CE0180
:101280000E94AE04C82A61E089890E94EB03C6CFA0
:101290008F929F92AF92BF92CF92DF92EF92FF9286
:1012A0000F931F93CF93DF93EC016AEF0E94A60880
:1012B0000D891E8930E020E0C72ED82EE92EFF24AC
:1012C000E7FCFA94C01AD10AE20AF30A57E09595AE
:1012D0008795779567955A95D1F7000F111F221FB3
:1012E000331F4B015C01801A910AA20AB30AA501BF
:1012F0009401AF89B88D0E9443194B015C01FBE05A
:10130000B594A79497948794FA95D1F7A70196017D
:10131000C701B6010E94FE159B01AC01ACE05595DA
:10132000479537952795AA95D1F7A98DBA8D0E9433
:1013300043199B01AC01BEE055954795379527951C
:10134000BA95D1F7280D391D4A1D5B1D2D873E87A3
:101350004F87588BA5E0B0E00E94301660587F4F51
:101360008F4F9F4F672F782F892F992787FD9A9549
:101370000E94E11420E030E048EC52E40E94B716ED
:10138000DF91CF911F910F91FF90EF90DF90CF9061
:10139000BF90AF909F908F9008952F923F924F9261
:1013A0005F926F927F928F929F92AF92BF92CF92F5
:1013B000DF92EF92FF920F931F93CF93DF93CDB7FE
:1013C000DEB76D970FB6F894DEBF0FBECDBF9D8F11
:1013D0008C8F0E94480967EF8C8D9D8D0E94A60816
:1013E000688F798F8A8F9B8FEC8DFD8D8585968593
:1013F000A785B0896C017D01FF0CCC08DC2C76013F
:101400009C01AD016C2D7C2D8C2D9C2D345F4140B9
:101410005109610971098109910929873A874B8727
:101420005C873B014C0159016A017B018C010E94E0
:101430004B19322E232E4A8B5B8B6C8B7D8B8E8BC4
:101440009F8BAC8DBD8D5E963C915E975D962C9189
:10145000932F990F990B492F592F692F792F892F86
:101460000E944B190CE00E947A1A522E39834D8744
:101470005E876F87788B898B492EEC8DFD8D30A12F
:10148000278D932F990F990BA32CB22CCA88DB8838
:10149000EC88FD880E891F89492F592F692F792FD4
:1014A000892F0E944B1908E00E94931AA52CB9803D
:1014B000CD84DE84EF84F8880989142D0E94B01A47
:1014C00070588F4F9F4FAC8DBD8D5B96ED91FC9109
:1014D0005F01D12CC12CE12CF12C8701E983BA8268
:1014E000CB82DC82ED82FE820F831887C12CD12C47
:1014F000E12CF12C00E010E00E944B1901E20E9467
:10150000931A2983532E4D875E876F87788B898B3B
:10151000492EA0E00E94C21A09F43DC1AC8DBD8DD8
:1015200096963C91969795962C91932F990F990B9F
:10153000A32CB22CCA88DB88EC88FD880E891F8911
:10154000492F592F692F792F892F0E944B19190183
:101550004A8B5B8B6C8B7D8B8E8B9F8BEC8DFD8D8B
:1015600034A123A1932F990F990BA984BA84CB841A
:10157000DC8473018401492F592F692F792F892F1A
:101580000E944B1901E10E947A1A5101CA88DB8836
:10159000EC88FD880E891F890E94B01A59016A01E2
:1015A0007B01282E192F488D598D6A8D7B8D84E003
:1015B00075956795579547958A95D1F780E090E0A6
:1015C000A0E1B0E0841B950BA60BB70B3C014D01CD
:1015D000990C6608762C43019C01AD01662D762D91
:1015E000862D962D0FE10E947A1A722E832E942E4C
:1015F000652EB62FA72F382E9987EC8DFD8D32A141
:1016000021A1932F990F990B492F592F692F792FCA
:10161000892F03E20E947A1A022D0E94B01A590102
:101620006A017B018C01272D382D492D562D6B2FFA
:101630007A2F832D99850E94B91AE5E3AE2EFCE03E
:10164000BF2EC12CD12CE12CF12C00E010E00E9427
:101650004B19A980B52CCD84DE84EF84F8880989E4
:10166000142D0E94A51929873A874B875C876983C7
:101670007D878E879F870DE00E94931A922E832E7E
:10168000742E652E562E472E382E292EAC8DBD8DEC
:101690009C963C919C979B962C91932F990F990B1C
:1016A000A92CB82CC72CD62CE52CF42C032D122DEC
:1016B000492F592F692F792F892F0E944B190E948A
:1016C0004B1909E10E94931AA984BA84CB84DC8463
:1016D000E980FD840E851F850E94B01A19012A0138
:1016E0003B014C01EC8DFD8D32A521A5932F990F67
:1016F000990B492F592F692F792F892F0E944B1948
:1017000003E10E94931A59016A017B018C01910146
:10171000A201B301C4010E94B01A08E00E94931A0A
:1017200059016A017B01E82F192FAC8DBD8D989668
:101730003C91989797962C91932F990F990B492F3D
:10174000592F692F792F892F04E00E947A1A0E2FC2
:101750000E94B01A0E94581720E030E040E85BE396
:101760000E9440156D960FB6F894DEBF0FBECDBF38
:10177000DF91CF911F910F91FF90EF90DF90CF906D
:10178000BF90AF909F908F907F906F905F904F90A1
:101790003F902F90089560E070E0CB01E3CFCF93AE
:1017A000DF93C82F80915C048F3F09F047C0809180
:1017B0004B0490914C042091530431E030935B032F
:1017C00020935A031092590310925803DC01ED91B3
:1017D000FC910190F081E02D6C2F199580914B04C4
:1017E00090914C040E94CA0662E0809153040E94CA
:1017F000760510920B0380930A0380914B0490911D
:101800004C04DC01ED91FC910284F385E02D1995E7
:10181000C82F80914B0490914C04DC01ED91FC9118
:101820000284F385E02D199520E03C2FE901C82BB7
:10183000D92B9C2F8D2FDF91CF91089580915F043C
:101840008F3F21F482E591E00E942F0260E08091B9
:101850005C040E94EB036C2F8BE494E00E94AE04C6
:1018600060E08BE494E00E94AE04C82F60E08BE45B
:1018700094E00E94AE04DC2FC82F61E080915C04EC
:101880000E94EB03D6CF4F925F926F927F928F921E
:101890009F92AF92BF92CF92DF92EF92FF920F93FF
:1018A0001F93CF936B017C01742EAC019B010E94AE
:1018B0000118882399F089E492E0CF911F910F914C
:1018C000FF90EF90DF90CF90BF90AF909F908F9060
:1018D0007F906F905F904F900C944708460157019E
:1018E000E894B7F82FEF3FEF4FE75FE7C501B4018A
:1018F0000E94011881110DC02FEF3FEF4FE75FE706
:10190000C501B4010E94DA1418161CF48DE492E0AB
:10191000D4CF2FEF3FEF4FE75FE4C701B6010E943E
:10192000AC1718161CF481E592E0C7CF2FEF3FEFFC
:101930004FE75FECC701B6010E94DA1487FDF3CFD1
:1019400020E030E0A901C701B6010E94DA1410E0DE
:1019500000E087FF0AC06DE28CE593E00E94CB02B5
:101960008C01F7FAF094F7F8F094C0E060E070E0D2
:1019700080E09FE37C1641F020E030E040E251E45B
:101980000E94B716CF5FF6CFA70196010E944B16B3
:101990002B013C010E9429174B015C014AE00E9487
:1019A00054087C01E00EF11ECC23C1F1C501B40145
:1019B0000E94DF149B01AC01C301B2010E944A16D0
:1019C0004B015C016EE28CE593E00E94CB02E80ED5
:1019D000F91EC15018F120E030E040E251E4C501A9
:1019E000B4010E9440152B013C010E9429174B01B4
:1019F000B12CA12C4AE0C501B4010E945408E80EA4
:101A0000F91EC501B4010E94DF149B01AC01C301A2
:101A1000B2010E944A164B015C01DBCFC701CF9196
:101A20001F910F91FF90EF90DF90CF90BF90AF90FC
:101A30009F908F907F906F905F904F900895EF925E
:101A4000FF920F931F93CF93DF9300D01F92CDB7D8
:101A5000DEB78CE593E00E9471028CE593E00E9472
:101A600071028E010F5F1F4F78018A3341F0F80138
:101A700081938F018CE593E00E947102F6CFC7013C
:101A80000E94B414182F8CE593E00E9471028053D9
:101A9000990B8230910520F4682F812F0E94EB036F
:101AA0008CE593E00E9471028A3011F08D30C1F70D
:101AB0008CE593E00E9485028A3021F48CE593E066
:101AC0000E9471020F900F900F900F90DF91CF91B5
:101AD0001F910F91FF90EF9008950C946A1B0C9446
:101AE0006A1B0F931F93CF93DF938C01EB01FB01D4
:101AF000349680E2DF011D928A95E9F784E290E056
:101B0000A0E0B0E088839983AA83BB83F801838136
:101B10009481092E000CAA0BBB0B8C839D83AE8392
:101B2000BF8386E090E0A0E0B0E088879987AA872D
:101B3000BB870E94A104688B798B8A8B9B8BD80111
:101B400015968D919C910E94CD0920E030E048ECE3
:101B500052E40E94B7166C8B7D8B8E8B9F8B81E03D
:101B6000DF91CF911F910F9108950F931F93CF9302
:101B7000DF938C01EB01FB01349680E2DF011D92C3
:101B80008A95E9F784E290E0A0E0B0E08883998349
:101B9000AA83BB83F80183819481092E000CAA0BD0
:101BA000BB0B8C839D83AE83BF838DE090E0A0E070
:101BB000B0E088879987AA87BB870E94A104688BB9
:101BC000798B8A8B9B8BD80115968D919C910E9465
:101BD00048096C8B7D8B8E8B9F8B81E0DF91CF9141
:101BE0001F910F9108950F931F93CF93DF938C0153
:101BF000EB0188E2FB0111928A95E9F74BE050E096
:101C000065E572E0CE010E94F31B1B8681E090E047
:101C1000A0E0B0E08C879D87AE87BF87F801838105
:101C20009481092E000CAA0BBB0B888B998BAA8B75
:101C3000BB8B86E090E0A0E0B0E08C8B9D8BAE8B00
:101C4000BF8B1CA21DA21EA21FA280E090E0A6E9ED
:101C5000B3E48C8F9D8FAE8FBF8F80E090E8A9E8B2
:101C6000B4E4888F998FAA8FBB8F86EA9BE9A4E49E
:101C7000BCE388A399A3AAA3BBA3DF91CF911F9133
:101C80000F9108950F931F93CF93DF938C01EB0176
:101C900088E2FB0111928A95E9F74BE050E065E597
:101CA00072E0CE010E94F31B1B8681E090E0A0E071
:101CB000B0E08C879D87AE87BF87F80183819481D0
:101CC000092E000CAA0BBB0B888B998BAA8BBB8BA4
:101CD0008DE090E0A0E0B0E08C8B9D8BAE8BBF8B55
:101CE0001CA21DA21EA21FA280E090E0A0E2B2EC06
:101CF0008C8F9D8FAE8FBF8F80E090E0AAEAB2E418
:101D0000888F998FAA8FBB8F8AE097EDA3E2BCE3FF
:101D100088A399A3AAA3BBA3DF91CF911F910F9191
:101D2000089585ED8093BC008091540390915503F4
:101D3000A0915603B09157030796A11DB11D23E052
:101D4000B695A795979587952A95D1F72091BC00D0
:101D500024FD03C010925203089540915403509102
:101D600055036091560370915703452B462B472B23
:101D700069F30097A105B10541F025E32A95F1F734
:101D800000000197A109B109E1CF809153030C94A0
:101D900055051F920F920FB60F9211240BB60F929A
:101DA0002F933F934F935F936F937F938F939F9363
:101DB000AF93BF93EF93FF938CE593E00E94A9024A
:101DC000FF91EF91BF91AF919F918F917F916F9113
:101DD0005F914F913F912F910F900BBE0F900FBECF
:101DE0000F901F9018951F920F920FB60F9211240B
:101DF0000BB60F922F938F939F93EF93FF93E091E6
:101E00006C03F0916D038081E0917203F091730394
:101E100082FD1DC09081809175038F5F8F7320912B
:101E20007603821741F0E0917503F0E0E45AFC4F2D
:101E3000958F80937503FF91EF919F918F912F91D3
:101E40000F900BBE0F900FBE0F901F9018958081C2
:101E5000F2CF1F920F920FB60F9211242F933F9340
:101E60008F939F93AF93BF938091F9029091FA0261
:101E7000A091FB02B091FC023091F80223E0230F05
:101E80002D3758F50196A11DB11D2093F8028093BE
:101E9000F9029093FA02A093FB02B093FC028091A6
:101EA000FD029091FE02A091FF02B0910003019605
:101EB000A11DB11D8093FD029093FE02A093FF022D
:101EC000B0930003BF91AF919F918F913F912F915C
:101ED0000F900FBE0F901F90189526E8230F0296C3
:101EE000A11DB11DD2CF1F920F920FB60F921124D8
:101EF0000BB60F922F933F934F935F936F937F9304
:101F00008F939F93AF93BF93EF93FF938091B9000B
:101F1000887F803609F44DC008F040C0883209F44B
:101F2000A9C028F5803109F49DC0C8F4882309F4BC
:101F3000FBC0883009F496C0FF91EF91BF91AF913B
:101F40009F918F917F916F915F914F913F912F91D1
:101F50000F900BBE0F900FBE0F901F9018958831F9
:101F600009F488C0803241F78093300314C0803474
:101F700009F49DC040F48033B9F38833E9F68093C7
:101F8000300385ECB0C0803509F485C0883509F48C
:101F900096C0883489F60E94910ECECF883909F414
:101FA0008CC038F5883729F050F4883611F0803726
:101FB00019F683E0809352031092F70257C08838D5
:101FC00009F47BC0803919F0803809F0B5CF8091D1
:101FD000F702803208F071C0E091F70281E08E0FC5
:101FE0008093F7028091BB00F0E0E952FD4F8083BF
:101FF0003DC0803B39F0E0F4803A09F479C0883A7A
:1020000009F09ACF84E0809352031092D602109286
:10201000D502E0910403F091050319958091D50252
:1020200081110FC081E08093D5021092B50209C0E2
:10203000803C09F4A6CF883C09F4A3CF883B09F083
:102040007BCFE091D60281E08E0F8093D602F0E044
:10205000EB54FD4F80818093BB009091D60280911C
:10206000D50229C080912D038093BB0085EC80931D
:10207000BC0062CF90912F0380912E03981758F5E2
:10208000E0912F0381E08E0F80932F03F0E0E45F57
:10209000FC4F8081E9CFE0912F0381E08E0F809388
:1020A0002F038091BB00F0E0E45FFC4F80839091B0
:1020B0002F0380912E039817C8F285E8D8CFE091BE
:1020C0002F0381E08E0F80932F038091BB00F0E0FF
:1020D000E45FFC4F80838091310381115CCF81E00C
:1020E00080932C0384EA8093BC001092520324CF87
:1020F00085EC8093BC00109252038091F7028032ED
:1021000030F4E091F702F0E0E952FD4F1082609167
:10211000F70270E0E0910203F091030387ED92E093
:1021200019951092F70208CF1092300334CFCF9355
:10213000DF93ECE5F3E01382128288EE93E0A0E0F7
:10214000B0E084839583A683B7832AE032E03183AD
:10215000208325EC30E03587248724EC30E0378776
:10216000268720EC30E0318B208B21EC30E0338B64
:10217000228B22EC30E0358B248B26EC30E0378B41
:10218000268B118E128E138E148EEFE3F4E01382E1
:10219000128284839583A683B7838CE192E0918336
:1021A0008083A9EFB3E016961D921D921D921C929A
:1021B00019971A961D921D921D921C921D971E969C
:1021C0001D921D921D921C92519752961D921D9226
:1021D0001D921C925597CBE4D4E08FEF898B8A8BAC
:1021E0008B8B8C8BF983E88387E090E00E94CE1A7A
:1021F000FC018CE392E09183808388E191E09483F9
:102200008383D683C583FD83EC8387E090E00E94BF
:10221000CE1AFC018EE292E09183808314821382B5
:10222000D683C583FF83EE83DF91CF9108957894A1
:1022300084B5826084BD84B5816084BD85B58260CB
:1022400085BD85B5816085BD80916E00816080937C
:102250006E001092810080918100826080938100E5
:1022600080918100816080938100809180008160F5
:10227000809380008091B10084608093B100809150
:10228000B00081608093B000809191008260809363
:1022900091008091910081608093910080919000E5
:1022A0008160809390008091A10082608093A10062
:1022B0008091A10081608093A1008091A000816045
:1022C0008093A00080912101826080932101809100
:1022D00021018160809321018091200181608093A0
:1022E000200180917A00846080937A0080917A0046
:1022F000826080937A0080917A00816080937A0076
:1023000080917A00806880937A001092C1001092C8
:102310003B0410923C0410923D0410923E04109233
:10232000FB031092FC031092FD031092FE030E9427
:10233000A1046B017C014B015C0128EB820E2BE0B8
:10234000921EA11CB11C0E94A1046C157D058E0576
:102350009F0528F086169706A806B906A0F768EE2E
:1023600073E080E090E00E946F040E9407020E94E8
:10237000A1046093FB037093FC038093FD0390938F
:10238000FE038CE592E00E9447080E94A1046B01C5
:102390007C014B015C013AE0830E911CA11CB11C35
:1023A0000E94A1046C157D058E059F0528F08616F8
:1023B0009706A806B906A0F781E080930F040E9453
:1023C000A1046093FB037093FC038093FD0390933F
:1023D000FE038DE692E00E9447080E9407028AE60B
:1023E00093E00E94180386E492E00E94470887E782
:1023F0008093530480915C048F3F09F051C1109287
:102400000B0310920A0310925903109258030E9472
:10241000370580E692E0909305038093040381E6FC
:1024200092E0909303038093020380915C048F3FBA
:1024300009F085C180914B0490914C042091530484
:1024400031E030935B0320935A03109259031092AA
:102450005803DC01ED91FC910190F081E02D60EDDD
:10246000199580914B0490914C040E94CA0661E03A
:10247000809153040E94760510920B0380930A0307
:1024800080914B0490914C04DC01ED91FC9102840D
:10249000F385E02D1995C82FC83509F46EC186E380
:1024A00093E00E94180386E492E00E94470884EFBC
:1024B000882E99249394A12CB12C0E94A104672BFF
:1024C000682B692B09F4C4C10E94A104C0900603C3
:1024D000D0900703E0900803F09009036C157D0588
:1024E0008E059F0508F41CC2C0900603D090070318
:1024F000E0900803F09009039B01AC012C193D0901
:102500004E095F0969017A013AEFC316D104E1046B
:10251000F10408F4A5C16093060370930703809348
:102520000803909309038092070490920804A092F4
:102530000904B0920A0410920B0410920C04109239
:102540000D0410920E048091FF0390910004A0915D
:102550000104B09102048093030490930404A093B7
:102560000504B09306040E94A1046093FF037093D6
:10257000000480930104909302048CE593E00E9490
:102580008502843611F40E941F0D0E94A1046093FD
:10259000FB037093FC038093FD039093FE030E9462
:1025A000A1046B017C0184E792E00E9447084AE0A5
:1025B00061E070E080E090E00E9454088BE792E0D8
:1025C0000E9447084AE0C701B6010E9454088DE7FF
:1025D00092E00E9447088091FF0390910004A0912F
:1025E0000104B0910204A7019601281B390B4A0B84
:1025F0005B0BCA01B9014AE00E9454088DE792E0E2
:102600000E9447086091FF037091000480910104CB
:1026100090910204C0900304D0900404E09005045B
:10262000F09006046C197D098E099F094AE00E940A
:1026300054088FE792E00E9447080E94A1044AE0F4
:102640000E94540881E892E00E9498080E94A10428
:102650006B017C012B013C0135E0430E511C611CD8
:10266000711C0E94A1046C157D058E059F0528F044
:102670004616570668067906A0F78CE593E00E9497
:102680008502843611F40E941F0D0E94A1046093FC
:10269000FF03709300048093010490930204E0C050
:1026A00061E00E94EB0361E080915C040E941904E8
:1026B00080915F048F3F09F034C0FFB6F894809199
:1026C0000103811127C0E5E2F3E08491EFEDF2E030
:1026D0009491E82FF0E0EE0FFF1FE057FD4FA5911A
:1026E000B491EC91E92321F461E085E30E94EB03CE
:1026F00061E085E30E9419048CB580618CBD8CB5C6
:1027000080648CBD61E084E30E94190461E083E38E
:102710000E941904809101038F5F80930103FFBE23
:1027200084CE61E00E94190461E080915D040E9402
:10273000190460E080915E040E94190476CE8091B5
:102740005F048F3F21F482E591E00E942F0260E058
:1027500080915C040E94EB0360ED8BE494E00E94A6
:10276000AE0460E08BE494E00E94AE04C82F61E008
:1027700080915C040E94EB038FCE88E80E94CF0B0F
:1027800090936104809360048AE80E94CF0B909339
:102790006304809362048CE80E94CF0B90936504DD
:1027A000809364048EE80E94CF0B9093670480931B
:1027B000660480E90E94CF0B9093690480936804BB
:1027C00082E90E94CF0B90936B0480936A0484E9A2
:1027D0000E94CF0B90936D0480936C0486E90E9455
:1027E000CF0B90936F0480936E0488E90E94CF0B07
:1027F00090937104809370048AE90E94CF0B9093A8
:102800007304809372048CE90E94CF0B909375043B
:10281000809374048EE90E94CF0B90937704809389
:10282000760450E040E070E060E085E090E00E94D7
:10283000030864E670E080E090E00E946F0447E0E7
:1028400050E064E070E082E090E00E9403082FCE48
:102850000E94A104623071058105910508F034CE13
:1028600085E993E00E9418038BE494E00E944809F4
:1028700042E00E94430C88E892E00E94980889E8B0
:1028800093E00E9418038BE494E00E94CD0923ECAE
:1028900037EC45EF5BE30E94401542E00E94430C99
:1028A0008CE892E00E94980886E793E00E94180363
:1028B0008BE494E00E94CD0920E030E048EC52E443
:1028C0000E94B71620E030E54DE754E40E94B716A9
:1028D00021E03EED42E45EE30E94B1179B01AC01B2
:1028E00060E070E080E89FE30E944A1620E03AE250
:1028F0004DE257E40E94401542E00E94430C80E9FB
:1029000092E00E94980886E492E00E94470860EDF9
:1029100077E080E090E00E946F040E945303CDCDE9
:102920006093060370930703809308039093090351
:10293000DBCD80914F0490915004009739F0DC0179
:10294000ED91FC910280F381E02D19958091510465
:1029500090915204009739F0DC01ED91FC910280D6
:10296000F381E02D19940895FC0188279927E894B4
:1029700021912032E9F3293010F02E30C8F32B32A8
:1029800041F02D3239F4689404C00E94D214820FB1
:10299000911D219120532A30C0F31EF4909581950A
:1029A0009F4F08957AE0979F902D879F802D910DDE
:1029B000112408950E941C1508F481E00895E894FC
:1029C00009C097FB3EF490958095709561957F4F77
:1029D0008F4F9F4F9923A9F0F92F96E9BB27939525
:1029E000F695879577956795B795F111F8CFFAF435
:1029F000BB0F11F460FF1BC06F5F7F4F8F4F9F4F66
:102A000016C0882311F096E911C0772321F09EE8C3
:102A1000872F762F05C0662371F096E8862F70E029
:102A200060E02AF09A95660F771F881FDAF7880F03
:102A30009695879597F90895990F0008550FAA0B59
:102A4000E0E8FEEF16161706E807F907C0F01216C1
:102A50001306E407F50798F0621B730B840B950BC4
:102A600039F40A2661F0232B242B252B21F4089519
:102A70000A2609F4A140A6958FEF811D811D0895B6
:102A80000E9453150C94C4150E94B61538F00E948C
:102A9000BD1520F0952311F00C94AD150C94B315D1
:102AA00011240C94F8150E94D51570F3959FC1F36D
:102AB000950F50E0551F629FF001729FBB27F00DEC
:102AC000B11D639FAA27F00DB11DAA1F649F662741
:102AD000B00DA11D661F829F2227B00DA11D621F90
:102AE000739FB00DA11D621F839FA00D611D221F4A
:102AF000749F3327A00D611D231F849F600D211D2E
:102B0000822F762F6A2F11249F5750409AF0F1F0B0
:102B100088234AF0EE0FFF1FBB1F661F771F881F19
:102B200091505040A9F79E3F510580F00C94AD158F
:102B30000C94F8155F3FE4F3983ED4F386957795AF
:102B40006795B795F795E7959F5FC1F7FE2B880FBF
:102B5000911D9695879597F9089597F99F6780E855
:102B600070E060E008959FEF80EC089500240A94DF
:102B70001616170618060906089500240A94121658
:102B80001306140605060895092E0394000C11F48B
:102B9000882352F0BB0F40F4BF2B11F460FF04C038
:102BA0006F5F7F4F8F4F9F4F089557FD9058440F91
:102BB000551F59F05F3F71F04795880F97FB991F9C
:102BC00061F09F3F79F08795089512161306140659
:102BD000551FF2CF4695F1DF08C0161617061806E6
:102BE000991FF1CF86957105610508940895E894C1
:102BF000BB2766277727CB0197F90895DB018F93D1
:102C00009F930E943016BF91AF91A29F800D911D9E
:102C1000A39F900DB29F900D11240895A1E21A2E4A
:102C2000AA1BBB1BFD010DC0AA1FBB1FEE1FFF1F70
:102C3000A217B307E407F50720F0A21BB30BE40BC0
:102C4000F50B661F771F881F991F1A9469F7609507
:102C50007095809590959B01AC01BD01CF010895C1
:102C60000E943B16A59F900DB49F900DA49F800DD0
:102C7000911D11240895A29FB001B39FC001A39F8D
:102C8000700D811D1124911DB29F700D811D1124A5
:102C9000911D08955058BB27AA270E9462160C94D4
:102CA000C4150E94B61538F00E94BD1520F039F405
:102CB0009F3F19F426F40C94B3150EF4E095E7FB4E
:102CC0000C94AD15E92F0E94D51558F3BA17620779
:102CD00073078407950720F079F4A6F50C94F7158F
:102CE0000EF4E0950B2EBA2FA02D0B01B901900127
:102CF0000C01CA01A0011124FF27591B99F0593F6B
:102D000050F4503E68F11A16F040A22F232F342FB2
:102D10004427585FF3CF469537952795A795F04000
:102D20005395C9F77EF41F16BA0B620B730B840B15
:102D3000BAF09150A1F0FF0FBB1F661F771F881FCD
:102D4000C2F70EC0BA0F621F731F841F48F4879525
:102D500077956795B795F7959E3F08F0B0CF939517
:102D6000880F08F09927EE0F9795879508950E9490
:102D7000CB160C94C4150E94BD1558F00E94B615D0
:102D800040F029F45F3F29F00C94AD1551110C94DB
:102D9000F8150C94B3150E94D51568F39923B1F377
:102DA000552391F3951B550BBB27AA276217730771
:102DB000840738F09F5F5F4F220F331F441FAA1F05
:102DC000A9F335D00E2E3AF0E0E832D091505040C1
:102DD000E695001CCAF72BD0FE2F29D0660F771F6F
:102DE000881FBB1F261737074807AB07B0E809F055
:102DF000BB0B802DBF01FF2793585F4F3AF09E3FDA
:102E0000510578F00C94AD150C94F8155F3FE4F380
:102E1000983ED4F3869577956795B795F7959F5F1C
:102E2000C9F7880F911D9695879597F90895E1E068
:102E3000660F771F881FBB1F621773078407BA07C7
:102E400020F0621B730B840BBA0BEE1F88F7E09522
:102E500008950E94DD1588F09F5798F0B92F9927A3
:102E6000B751B0F0E1F0660F771F881F991F1AF075
:102E7000BA95C9F714C0B13091F00E94F715B1E0CE
:102E800008950C94F715672F782F8827B85F39F0CD
:102E9000B93FCCF3869577956795B395D9F73EF40E
:102EA00090958095709561957F4F8F4F9F4F0895B6
:102EB00097FB16F40E949C170C945F17E894F92F67
:102EC00096EBFF2381F0121613061406440B93951C
:102ED000F69587957795679557954040FF23B9F705
:102EE0001BC099270895882351F49850D2F7872B57
:102EF000762F652F542F432F322F20E0B1F3121677
:102F000013061406440B88233AF09A95440F551F74
:102F1000661F771F881FCAF755234AF4440F551FB1
:102F200011F460FF04C06F5F7F4F8F4F9F4F880F7A
:102F30009695879597F908959095809570956095E9
:102F400050954095309521953F4F4F4F5F4F6F4FB4
:102F50007F4F8F4F9F4F08950E941C1508F48FEFED
:102F60000895FA01EE0FFF1F309621053105A1F1FA
:102F70006115710561F48038BFE39B0749F16894DE
:102F80009038810561F08038BFEF9B0741F09923AD
:102F90004AF5FF3FE1053105210519F1E894089450
:102FA000E795D901AA2329F4AB2FBE2FF85FD0F300
:102FB00010C0FF5F70F4A695E0F7F73950F019F0F4
:102FC000FF3A38F49F779F930DD00F9007FC9058ED
:102FD000089546F00C94B31560E070E080E89FE33C
:102FE00008954FE79F775F934F933F932F930E94EE
:102FF000B1182F913F914F915F910E9440150C9411
:103000000E180E941C15880B990B089529F416F0D0
:103010000C94AD150C94F7150C94B3150E94DD15A6
:10302000A8F39638A0F707F80F92E8942BE33AEA52
:1030300048EB5FE70E9456150F920F920F924DB723
:103040005EB70F920E94F918E4EEF0E00E9440187B
:103050004F915F91EF91FF91E595EE1FFF1F49F0B2
:10306000FE57E0684427EE0F441FFA95E1F74195BB
:10307000550B0E9473180F9007FE0C946718089563
:10308000DF93CF931F930F93FF92EF92DF927B0119
:103090008C01689406C0DA2EEF010E945315FE01E0
:1030A000E894A5912591359145915591A6F3EF01AD
:1030B0000E946216FE019701A801DA9469F7DF9079
:1030C000EF90FF900F911F91CF91DF9108959B0199
:1030D000AC0160E070E080E89FE30C94B7160C94BC
:1030E000AD150C942D190E94DD15D8F39923C9F361
:1030F000940F511DA3F39150504094F059F0882340
:1031000032F0660F771F881F91505040C1F79E3FE5
:1031100051052CF7880F911D9695879597F908957D
:103120005F3FACF0983E9CF0BB27869577956795FE
:10313000B79508F4B1609395C1F7BB0F58F711F438
:1031400060FFE8CF6F5F7F4F8F4F9F4FE3CF0C94AF
:10315000F81516F00C942D190C94B31568940C9472
:10316000AD150E94DD15A8F39923C1F3AEF3DF93EB
:10317000CF931F930F93FF92C92FDD2788232AF047
:103180002197660F771F881FDAF720E030E040E8CC
:103190005FEB9FE3883920F0803E38F021968F77EF
:1031A0000E944B16ECE0F1E004C00E944B16E9E3EC
:1031B000F1E00E9440188B01BE01EC01FB2E6F571D
:1031C00071097595771F880B990B0E94E11428E10E
:1031D00032E741E35FE30E945315AF2D9801AE0142
:1031E000FF900F911F91CF91DF910E9462160C9476
:1031F000C415FA01DC01AA0FBB1F9B01AC01BF572C
:1032000028F4222733274427507820C0B75190F460
:10321000AB2F0024469537952795011CA395D2F333
:10322000002071F0220F331F441FB395DAF30ED044
:103230000C944A1661307105A0E88A07B94630F44B
:103240009B01AC016627772788279078309621F07C
:10325000208331834283538308959F3F31F09150FF
:1032600020F4879577956795B795880F911D96956A
:10327000879597F90895EE0FFF1F881F8BBF079062
:10328000F691E02D1994B7FF0C9430160E94301679
:10329000821B930B0895DF93CF931F930F939A9DF7
:1032A000F02D219FF00D8B9DF00D8A9DE02DF10DED
:1032B000039FF00D029FE00DF11D4E9DE00DF11DED
:1032C0005E9DF00D4F9DF00D7F936F93BF92AF9277
:1032D0005F934F93D5010E943B168B01AC01D70140
:1032E0000E943B16EB01E80FF91FD6010E949A19C4
:1032F0002F913F91D6010E943B16C60FD71FE81FA2
:10330000F91FAF91BF910E949A192F913F910E948E
:103310003B16C60FD71FE81FF91FD6010E943B16A8
:10332000E60FF71F9801BE01CF010F911F91CF91BA
:10333000DF9108950E943B16460F571FC81FD91FE3
:1033400008F431960895689401C0E894F92FF12BA0
:1033500012F00C94D719A0E0B0E0E1EBF9E10C9485
:10336000491A092E059422F40E94331A112392F46B
:10337000F0E80F26FFEFE094F09400951095B094DC
:10338000C094D094A194BF0ACF0ADF0AEF0AFF0AC3
:103390000F0B1F0B0E94E21907FC0E94331ACDB7D6
:1033A000DEB7ECE00C94651A689401C0E8948F9243
:1033B0009F92CF93DF930E94E219DF91CF919F906C
:1033C0008F90089588249924F401E401B0E49F9338
:1033D000AA279A158B049C04ED05FE05CF05D0079E
:1033E000A10798F4AD2FDC2FCF2FFE2FE92D982CBD
:1033F000892E982F872F762F652F542F432F322F0A
:103400002227B85031F7BF9127C01B2EBF91BB2791
:10341000220F331F441F551F661F771F881F991FD8
:10342000881C991CEE1FFF1FCC1FDD1FAA1FBB1F8E
:103430008A149B04EC05FD05CE05DF05A007B10746
:1034400048F08A189B08EC09FD09CE09DF09A00B9A
:10345000B10B21601A94E1F62EF49401AF01BE0184
:10346000CD01000C089560957095809590953095EC
:103470004095509521953F4F4F4F5F4F6F4F7F4F76
:103480008F4F9F4F08952F923F924F925F926F926E
:103490007F928F929F92AF92BF92CF92DF92EF92E4
:1034A000FF920F931F93CF93DF93CDB7DEB7CA1B65
:1034B000DB0B0FB6F894DEBF0FBECDBF19942A8880
:1034C000398848885F846E847D848C849B84AA8438
:1034D000B984C884DF80EE80FD800C811B81AA81C5
:1034E000B981CE0FD11D0FB6F894DEBF0FBECDBF90
:1034F000ED010895002E083090F0982F872F762F39
:10350000652F542F432F322F22270850F4CF220F3C
:10351000331F441F551F661F771F881F991F0A9569
:10352000B2F7002D089597FD1094002E083098F002
:103530000850232F342F452F562F672F782F892F90
:10354000912DF4CF15949795879577956795579515
:103550004795379527950A95AAF71124002D0895C8
:103560002A0D3B1D4C1D5D1D6E1D7F1D801F911F73
:1035700008952A193B094C095D096E097F09800BE2
:10358000910B08950024A7FD00942A1730054005EB
:103590005005600570058005900508950F931F93F1
:1035A000CF93DF938230910510F482E090E0E091B8
:1035B0007C04F0917D0430E020E0B0E0A0E03097A2
:1035C00099F42115310509F44AC0281B390B243020
:1035D0003105D8F58A819B816115710589F1FB015F
:1035E00093838283FE0111C0408151810281138146
:1035F00048175907E0F04817590799F4109761F0F8
:1036000012960C93129713961C933296CF01DF916A
:10361000CF911F910F91089500937C0410937D0426
:10362000F4CF2115310551F04217530738F0A901A5
:10363000DB019A01BD01DF01F801C1CFEF01F9CF34
:1036400090937D0480937C04CDCFFE01E20FF31FA5
:10365000819391932250310939832883D7CF2091C8
:103660007A0430917B04232B41F4209102023091A3
:10367000030230937B0420937A042091000230915E
:1036800001022115310541F42DB73EB740910402E6
:1036900050910502241B350BE0917A04F0917B04D4
:1036A000E217F307A0F42E1B3F0B2817390778F019
:1036B000AC014E5F5F4F2417350748F04E0F5F1F78
:1036C00050937B0440937A04819391939FCFF0E0D1
:1036D000E0E09CCFCF93DF930097E9F0FC013297B5
:1036E00013821282A0917C04B0917D04ED0130E040
:1036F00020E01097A1F420813181820F931F209147
:103700007A0430917B042817390709F061C0F093DF
:103710007B04E0937A04DF91CF910895EA01CE17FC
:10372000DF07E8F54A815B819E0141155105B1F73C
:10373000E901FB83EA8349915991C40FD51FEC1726
:10374000FD0761F4808191810296840F951FE90144
:1037500099838883828193819B838A83F0E0E0E070
:1037600012968D919C9113970097B9F52D913C91EC
:103770001197CD010296820F931F20917A04309108
:103780007B042817390739F6309751F510927D04DC
:1037900010927C04B0937B04A0937A04BCCFD383B3
:1037A000C28340815181840F951FC817D90761F4E6
:1037B0004E5F5F4F88819981480F591F5183408325
:1037C0008A819B81938382832115310509F0B0CFD3
:1037D000F0937D04E0937C049ECFFD01DC01C0CF1B
:1037E00013821282D7CFFB01DC014150504048F0D8
:1037F00001900D920020C9F701C01D924150504028
:10380000E0F7089511E0C3EDD1E000E006C0802F9D
:10381000FE010E943B192196011DC43DD10780E0A5
:103820000807A9F7F894FFCF00007E04800000008D
:103830000000CB023202620233039302710285025E
:10384000000000009B066E0644085F0267065406EF
:10385000450600000000AD046D0D0F05710DF30D60
:1038600000000000AD046F0D0F05B50D420E0D0AEE
:10387000006E616E00696E66006F766600424D50A4
:1038800032383000564D4450565F317C315F564DD2
:103890004450560A00564D4450525F00564D445015
:1038A000455F003A323A007C005F564D4450450077
:0C38B000202A430020506100206D000021
:020000040003F7
:10E000000D9489F10D94B2F10D94B2F10D94B2F129
:10E010000D94B2F10D94B2F10D94B2F10D94B2F1F0
:10E020000D94B2F10D94B2F10D94B2F10D94B2F1E0
:10E030000D94B2F10D94B2F10D94B2F10D94B2F1D0
:10E040000D94B2F10D94B2F10D94B2F10D94B2F1C0
:10E050000D94B2F10D94B2F10D94B2F10D94B2F1B0
:10E060000D94B2F10D94B2F10D94B2F10D94B2F1A0
:10E070000D94B2F10D94B2F10D94B2F10D94B2F190
:10E080000D94B2F10D94B2F10D94B2F10D94B2F180
:10E090000D94B2F10D94B2F10D94B2F10D94B2F170
:10E0A0000D94B2F10D94B2F10D94B2F10D94B2F160
:10E0B0000D94B2F10D94B2F10D94B2F10D94B2F150
:10E0C0000D94B2F10D94B2F10D94B2F10D94B2F140
:10E0D0000D94B2F10D94B2F10D94B2F10D94B2F130
:10E0E0000D94B2F141546D656761323536300041AF
:10E0F000726475696E6F206578706C6F72657220DE
:10E1000073746B3530305632206279204D4C530099
:10E11000426F6F746C6F616465723E004875683F52
:10E1200000436F6D70696C6564206F6E203D200048
:10E130004350552054797065202020203D20005FF9
:10E140005F4156525F415243485F5F3D2000415658
:10E1500052204C696243205665723D20004743437C
:10E160002056657273696F6E203D20004350552024
:10E1700049442020202020203D20004C6F7720663D
:10E18000757365202020203D20004869676820665F
:10E190007573652020203D200045787420667573D6
:10E1A00065202020203D20004C6F636B2066757336
:10E1B000652020203D20004D617220203720323024
:10E1C000313300312E362E3800342E332E350056A2
:10E1D00023202020414444522020206F7020636F70
:10E1E00064652020202020696E73747275637469E1
:10E1F0006F6E2061646472202020496E74657272B3
:10E20000757074006E6F20766563746F7200726A49
:10E210006D702020006A6D70200057686174207056
:10E220006F72743A00506F7274206E6F7420737541
:10E2300070706F72746564004D7573742062652030
:10E2400061206C6574746572002000577269747483
:10E25000696E672045450052656164696E672045B7
:10E26000450045452065727220636E743D00504F35
:10E27000525400303D5A65726F2061646472003FF1
:10E280003D43505520737461747300403D454550C3
:10E29000524F4D207465737400423D426C696E6B41
:10E2A000204C454400453D44756D70204545505215
:10E2B0004F4D00463D44756D7020464C415348001B
:10E2C000483D48656C70004C3D4C69737420492F83
:10E2D0004F20506F72747300513D51756974005234
:10E2E0003D44756D702052414D00563D73686F7707
:10E2F00020696E7465727275707420566563746FF0
:10E30000727300593D506F727420626C696E6B00BD
:10E310002A0011241FBECFEFD1E2DEBFCDBF01E046
:10E320000CBF12E0A0E0B2E0EEE1FDEF03E00BBFB6
:10E3300002C007900D92A030B107D9F712E0A0E01B
:10E34000B2E001C01D92AE30B107E1F70F9460F367
:10E350000D948DFE01E20EBF0FEF0DBF11241FBE05
:10E360000D9460F30D9400F020E030E040ED57E0B4
:10E3700005C0FA013197F1F72F5F3F4F2817390792
:10E38000C0F308959C01260F311DC901A0E0B0E043
:10E390002F5F3F4FABBFFC018791882361F08093D3
:10E3A000C6008091C00086FFFCCF8091C0008064D1
:10E3B0008093C000EACF08958DE08093C6008091DD
:10E3C000C00086FFFCCF8091C00080648093C000B5
:10E3D0008AE08093C6008091C00086FFFCCF8091C8
:10E3E000C00080648093C00008950F94C2F10F9420
:10E3F000DCF10895FC019081992359F09093C600B7
:10E400008091C00086FFFCCF8091C0008064809323
:10E41000C0003196992379F70895282F982F929567
:10E420009F70892F805D8A3308F0895F8093C600D2
:10E430008091C00086FFFCCF8091C00080648093F3
:10E44000C000822F8F70982F905D9A3308F0995FEB
:10E450009093C6008091C00086FFFCCF8091C000E1
:10E4600080648093C00008959C01FB01853691056E
:10E470001CF46330710594F0C90164E670E00F94F8
:10E480002EFE605D7F4F6093C6008091C00086FFC6
:10E49000FCCF8091C00080648093C0002B30310598
:10E4A00014F43297B4F0C90164E670E00F942EFEC4
:10E4B0006AE070E00F942EFE605D7F4F6093C600AF
:10E4C0008091C00086FFFCCF8091C0008064809363
:10E4D000C000C9016AE070E00F942EFEC0968093E0
:10E4E000C6008091C00086FFFCCF8091C000806490
:10E4F0008093C00008951F93182F8EE692EE60E07F
:10E500000F94C2F11093C6008091C00086FFFCCF2B
:10E510008091C00080648093C0000F94DCF11F9153
:10E5200008952F923F924F925F926F927F928F92B7
:10E530009F92AF92BF92CF92DF92EF92FF920F9392
:10E540001F93DF93CF93CDB7DEB762970FB6F894E2
:10E55000DEBF0FBECDBF382E622ECA01DB015C01CB
:10E560006D01772420E2222E2E010894411C511CBB
:10E570008BC081E0A81680E0B80681E0C80680E084
:10E58000D80628F0C601AA27BB270F940DF2BB2797
:10E59000AD2D9C2D8B2D0F940DF28A2D0F940DF225
:10E5A0002092C6008091C00086FFFCCF8091C00001
:10E5B00080648093C0009DE29093C6008091C0006B
:10E5C00086FFFCCF8091C00080648093C0002092C1
:10E5D000C6008091C00086FFFCCF8091C00080649F
:10E5E0008093C00019828601750188249924A1E0D6
:10E5F0003A1651F03A1620F0B2E03B1661F409C029
:10E600000BBFF701779007C0C7010F9477FE782EF4
:10E6100002C0F7017080872D0F940DF22092C60082
:10E620008091C00086FFFCCF8091C0008064809301
:10E63000C000872D8052F401EF70F0708F3520F408
:10E64000E40DF51D708204C0E40DF51D8EE280839B
:10E650000894E11CF11C011D111D0894811C911CE2
:10E6600090E18916910409F0C2CF80E190E0A0E02A
:10E67000B0E0A80EB91ECA1EDB1E198AC2010F9493
:10E68000FAF10F94DCF16A94662009F072CF629679
:10E690000FB6F894DEBF0FBECDBFCF91DF911F91B3
:10E6A0000F91FF90EF90DF90CF90BF90AF909F9031
:10E6B0008F907F906F905F904F903F902F90089534
:10E6C0002F923F924F925F926F927F928F929F9282
:10E6D000AF92BF92CF92DF92EF92FF920F931F9370
:10E6E000DF93CF93CDB7DEB7CD53D1400FB6F894BB
:10E6F000DEBF0FBECDBF01E20EBF0FEF0DBF94B75F
:10E70000F894A89514BE80916000886180936000A1
:10E7100010926000789493FF05C0E0910002F091A0
:10E7200001021995279A2F9A8091C00082608093E8
:10E73000C00080E18093C40088E18093C1000000A4
:10E74000EE24FF24870144E0A42EB12CCC24DD2448
:10E7500024C0C5010197F1F70894E11CF11C011DCB
:10E76000111D21E2E2162EE4F20620E0020720E06D
:10E77000120718F031E0C32ED12CC801B70127ECE5
:10E780003BE140E050E00F9441FE611571058105C9
:10E79000910519F485B1805885B98091C00087FD35
:10E7A00003C0C114D104A9F2A6014F5F5F4FC25E3E
:10E7B000DE4F59834883CE51D140C25EDE4F8881FF
:10E7C0009981CE51D140019711F00D9410FEC05D9A
:10E7D000DE4F19821882C053D14060E0C15DDE4F28
:10E7E0001882CF52D14088249924C35DDE4F19820C
:10E7F0001882CD52D140C05EDE4F188219821A8233
:10E800001B82C052D140CE5CDE4F188219821A8220
:10E810001B82C253D140EE24FF2487010BBFF701B6
:10E8200007911691C45CDE4F19830883CC53D14005
:10E830000D940BFEC25EDE4F28813981CE51D1404E
:10E840002130310509F52091C600C25EDE4F1982E4
:10E850001882CE51D14022C02F5F3F4F4F4F5F4FA4
:10E86000213082E138078AE7480780E0580780F0C6
:10E87000C45CDE4FE881F981CC53D140EF5FFF4F9C
:10E8800019F0EE27FF27099420E030E040E050E047
:10E890008091C00087FFE0CF2091C600C35DDE4FAE
:10E8A00048815981CD52D1404F5F5F4FC35DDE4FEC
:10E8B00059834883CD52D140213209F063C64A3092
:10E8C000510508F05FC60894811C911C53E0851621
:10E8D000910409F059C600E010E018C081E280936D
:10E8E000C6008091C00086FFFCCF8091C00080648C
:10E8F0008093C0002F5F3F4F2931310579F70F9486
:10E90000DCF10F5F1F4F0530110519F020E030E0FA
:10E91000E5CF10920A0210920B0210920C02109294
:10E920000D02109206021092070210920802109235
:10E930000902109202021092030210920402109235
:10E9400005028FEE90EE60E00F94F5F180E191EE1C
:10E9500060E00F94C2F18091C00087FFFCCF9091DE
:10E96000C600903608F09F759032B8F09093C600BC
:10E970008091C00086FFFCCF8091C00080648093AE
:10E98000C000A0E2A093C6008091C00086FFFCCF2B
:10E990008091C00080648093C000983409F4D7C18E
:10E9A0009934B8F4923409F459C1933458F490333B
:10E9B00019F1903308F4E3C59F33A1F1903409F0C5
:10E9C000DEC5BDC0953409F470C1963409F0D7C5D1
:10E9D00098C1923509F42BC2933538F49C3409F46C
:10E9E000F5C1913509F0CBC518C2963509F445C279
:10E9F000993509F0C4C567C483E792EE62E00F94CD
:10EA0000F5F110920602109207021092080210927D
:10EA1000090210920A0210920B0210920C0210923C
:10EA20000D0213C18FE792EE62E00F94F5F18FEEC5
:10EA300090EE60E00F94F5F181E291EE60E00F94CA
:10EA4000C2F187EB91EE60E00F94F5F180E391EE77
:10EA500060E00F94C2F184EE90EE60E00F94F5F167
:10EA60008FE391EE60E00F94C2F186E090E061E008
:10EA700070E00F9434F20F94DCF18DE591EE60E0DC
:10EA80000F94C2F189EC91EE60E00F94F5F18EE401
:10EA900091EE60E00F94C2F183EC91EE60E00F9490
:10EAA000F5F18CE691EE60E00F94C2F18EE10F94E7
:10EAB0000DF288E90F940DF281E00F940DF20F949E
:10EAC000DCF18BE791EE60E00F94C2F119E0E0E039
:10EAD000F0E010935700E4918E2F0F940DF20F94F5
:10EAE000DCF18AE891EE60E00F94C2F1E3E0F0E03F
:10EAF00010935700E4918E2F0F940DF20F94DCF1D8
:10EB000089E991EE60E00F94C2F1E2E0F0E0109349
:10EB10005700E4918E2F0F940DF20F94DCF188EAE8
:10EB200091EE60E00F94C2F1E1E0F0E01093570045
:10EB30001491812F0F940DF20F94DCF107CF8BE825
:10EB400092EE62E00F94F5F18BE492EE60E00F94A8
:10EB5000F5F10F94DCF100E010E019C0C8016F2D51
:10EB60000F947FFEFF2031F489E492EE60E00F9471
:10EB7000C2F10BC0F092C6008091C00086FFFCCFAE
:10EB80008091C00080648093C0000F5F1F4FC80158
:10EB900081519F41A0E0B0E0ABBFFC01F790BAE229
:10EBA000FB1621F0E2E000301E07C1F60F94DCF105
:10EBB0000F94DCF187E592EE60E00F94F5F10F948D
:10EBC000DCF1CC24DD2400E010E01EC0C8010F946D
:10EBD00077FEF82E882331F489E492EE60E00F94FA
:10EBE000C2F10BC08093C6008091C00086FFFCCFAD
:10EBF0008091C00080648093C000FE1419F00894D6
:10EC0000C11CD11C0F5F1F4FC80181519F41A0E063
:10EC1000B0E0ABBFFC01E790FAE2EF1621F022E092
:10EC20000030120799F60F94DCF10F94DCF182E6C4
:10EC300092EE60E00F94C2F1C60161E070E00F94C3
:10EC400034F20F94DCF10F94DCF110920202109276
:10EC50000302109204021092050278CE89E992EE26
:10EC600062E00F94F5F1279A2F9A16C02F9880E052
:10EC700090E0E0EDF7E03197F1F7019684369105E9
:10EC8000C1F72F9A80E090E0E0EDF7E03197F1F7DF
:10EC9000019684369105C1F78091C00087FFE6CFC9
:10ECA0008091C00087FFFCCF64C485EA92EE62E0E9
:10ECB0000F94F5F140910202509103026091040219
:10ECC0007091050281E020E10F9491F2809102029F
:10ECD00090910302A0910402B091050280509F4FD1
:10ECE000AF4FBF4F8093020290930302A0930402A0
:10ECF000B093050280509041A040B04008F426CE69
:10ED0000A4CF83EB92EE62E00F94F5F140910602FE
:10ED100050910702609108027091090280E020E1A1
:10ED20000F9491F28091060290910702A09108023F
:10ED3000B091090280509F4FAF4FBF4F80930602A2
:10ED400090930702A0930802B0930902FFCD80ECD4
:10ED500092EE62E00F94F5F183E792EE60E00F949B
:10ED6000F5F18FE792EE60E00F94F5F18BE892EE0B
:10ED700060E00F94F5F189E992EE60E00F94F5F10F
:10ED800085EA92EE60E00F94F5F183EB92EE60E09D
:10ED90000F94F5F180EC92EE60E00F94F5F187ECC2
:10EDA00092EE60E00F94F5F188ED92EE60E00F9442
:10EDB000F5F18FED92EE60E00F94F5F18AEE92EEB0
:10EDC00060E00F94F5F183E093EEBDCD87EC92EE19
:10EDD00062E00F94F5F181E40F947BF282E40F94EA
:10EDE0007BF283E40F947BF284E40F947BF285E45E
:10EDF0000F947BF286E40F947BF287E40F947BF20E
:10EE000088E40F947BF28AE40F947BF28BE40F94F6
:10EE10007BF28CE40F947BF299CD88ED92EE62E068
:10EE20000F94F5F1772473948824992409C48FED05
:10EE300092EE62E00F94F5F140910A0250910B02BC
:10EE400060910C0270910D0282E020E10F9491F22A
:10EE500080910A0290910B02A0910C02B0910D02D8
:10EE600080509F4FAF4FBF4F80930A0290930B0289
:10EE7000A0930C02B0930D0269CD8AEE92EE62E08F
:10EE80000F94F5F184EE90EE60E00F94F5F18FECC5
:10EE900091EE60E00F94F5F1662477244301CC5D98
:10EEA000DE4F19821882C452D140D401C301B695F5
:10EEB000A79597958795CA5DDE4F88839983AA8326
:10EEC000BB83C652D140CC5DDE4FA881B981C4520C
:10EED000D1401196CC5DDE4FB983A883C452D14096
:10EEE000CD0162E070E00F9434F2B0E2B093C6005E
:10EEF0008091C00086FFFCCF8091C0008064809329
:10EF0000C000EDE2E093C6008091C00086FFFCCF18
:10EF10008091C00080648093C000F0E2F093C6004E
:10EF20008091C00086FFFCCF8091C00080648093F8
:10EF3000C000CA5DDE4FE880F9800A811B81C6529D
:10EF4000D140BB27A12F902F8F2D0F940DF2CA5DBA
:10EF5000DE4F8881C652D1400F940DF2B0E2FB2EF5
:10EF6000F092C6008091C00086FFFCCF8091C00067
:10EF700080648093C0000DE30093C6008091C000C0
:10EF800086FFFCCF8091C00080648093C00010E2B7
:10EF90001093C6008091C00086FFFCCF8091C00016
:10EFA00080648093C0008BBEF3012791C65DDE4F65
:10EFB0002883CA52D140A22EBB24CC24DD2408943D
:10EFC000611C711C811C911C8BBEF3018791282E42
:10EFD0003324442455240894611C711C811C911C09
:10EFE0008BBEF3013791C55DDE4F3883CB52D140E4
:10EFF0000894611C711C811C911C8BBEF30147910C
:10F00000C45DDE4F4883CC52D140ADEFEA2EAFEF66
:10F01000FA2EAFEF0A2FAFEF1A2F6E0C7F1C801E57
:10F02000911E142D032DF22CEE24EA0CFB1C0C1D5A
:10F030001D1D0F940DF220E22093C6008091C000A8
:10F0400086FFFCCF8091C00080648093C000C65DC5
:10F05000DE4F8881CA52D1400F940DF230E23093D6
:10F06000C6008091C00086FFFCCF8091C000806404
:10F070008093C000C45DDE4F8881CC52D1400F9494
:10F080000DF240E24093C6008091C00086FFFCCFA5
:10F090008091C00080648093C000C55DDE4F888190
:10F0A000CB52D1400F940DF250E25093C6008091A4
:10F0B000C00086FFFCCF8091C00080648093C000B8
:10F0C0008FEFE8168FEFF80680E0080780E018075A
:10F0D00031F484E092EE60E00F94C2F1DFC0D80119
:10F0E000C7018070907CA070B0708050904CA040A0
:10F0F000B040D1F52FEF3FE340E050E0E222F322B1
:10F1000004231523CA5DDE4FA880B980CA80DB8046
:10F11000C652D140AE0CBF1CC01ED11EAA0CBB1CD7
:10F12000CC1CDD1C8EE092EE60E00F94C2F1BB2798
:10F13000A12F902F8F2D0F940DF28E2D0F940DF285
:10F1400030E23093C6008091C00086FFFCCF8091F2
:10F15000C00080648093C0004EE34093C60080915D
:10F16000C00086FFFCCF87C08EE09EEFA0E0B0E03D
:10F17000E822F9220A231B239CE0E91694E9F90608
:10F1800090E0090790E0190709F088C0C45DDE4FE0
:10F19000A881CC52D140EA2EFF2400E010E0102FCD
:10F1A0000F2DFE2CEE24C55DDE4FB881CB52D14031
:10F1B000EB0EF11C011D111DD601C501817090706F
:10F1C000A070B070DC0199278827E80EF91E0A1F8D
:10F1D0001B1F20EF30E040E050E0A222B322C42207
:10F1E000D52241E1AA0CBB1CCC1CDD1C4A95D1F7F1
:10F1F000EA0CFB1C0C1D1D1D81E090E0A0E0B0E0BE
:10F20000282239224A225B2235E1220C331C441C7D
:10F21000551C3A95D1F7E20CF31C041D151D57013E
:10F220006801AA0CBB1CCC1CDD1C85E192EE60E0E1
:10F230000F94C2F1C801AA27BB270F940DF2BB2778
:10F24000A12F902F8F2D0F940DF28E2D0F940DF274
:10F2500090E29093C6008091C00086FFFCCF809121
:10F26000C00080648093C000AEE3A093C60080918C
:10F27000C00086FFFCCF8091C00080648093C000F6
:10F28000C601AA27BB270F940DF2BB27AD2D9C2DDD
:10F290008B2D0F940DF28A2D0F940DF20F94DCF14B
:10F2A000CC5DDE4FE881F981C452D140F99709F471
:10F2B0004DCBF4E0EF2EF12C012D112D6E0C7F1CA7
:10F2C000801E911EF2CD83E093EE62E00F94F5F183
:10F2D0008AE192EE60E00F94C2F18091C00087FF56
:10F2E000FCCF1091C6001F751093C6008091C0001E
:10F2F00086FFFCCF8091C00080648093C0000F9493
:10F30000DCF1812F81548A3108F036C1163409F4BA
:10F3100095C0173490F4133409F44EC0143430F40B
:10F320001134F1F0123409F01DC130C0143409F465
:10F3300059C0153409F016C16BC01A3409F4C4C0A1
:10F340001B3438F4173409F48FC0183409F00AC19B
:10F35000A1C01B3409F4D2C01C3409F003C1E8C0B9
:10F360008FEF81B90DC082B1809582B980E090E0C5
:10F37000E0EDF7E03197F1F70196883C9105C1F790
:10F380008091C00087FFEFCF12B8EFC08FEF84B934
:10F390000DC085B1809585B980E090E0E0EDF7E0A3
:10F3A0003197F1F70196883C9105C1F78091C00033
:10F3B00087FFEFCF15B8D9C08FEF87B90DC088B1DF
:10F3C000809588B980E090E0E0EDF7E03197F1F7C3
:10F3D0000196883C9105C1F78091C00087FFEFCF6F
:10F3E00018B8C3C08FEF8AB90DC08BB180958BB9A7
:10F3F00080E090E0E0EDF7E03197F1F70196883C8E
:10F400009105C1F78091C00087FFEFCF1BB8ADC059
:10F410008FEF8DB90DC08EB180958EB980E090E0F0
:10F42000E0EDF7E03197F1F70196883C9105C1F7DF
:10F430008091C00087FFEFCF1EB897C08FEF80BBD1
:10F440000DC081B3809581BB80E090E0E0EDF7E0F6
:10F450003197F1F70196883C9105C1F78091C00082
:10F4600087FFEFCF11BA81C08FEF83BB0DC084B38C
:10F47000809584BB80E090E0E0EDF7E03197F1F714
:10F480000196883C9105C1F78091C00087FFEFCFBE
:10F4900014BA6BC08FEF809301010FC080910201FD
:10F4A00080958093020180E090E0E0EDF7E03197F5
:10F4B000F1F70196883C9105C1F78091C00087FF64
:10F4C000EDCF1092020151C08FEF809304010FC065
:10F4D0008091050180958093050180E090E0E0ED4A
:10F4E000F7E03197F1F70196883C9105C1F78091DB
:10F4F000C00087FFEDCF1092050137C08FEF8093DA
:10F5000007010FC08091080180958093080180E079
:10F5100090E0E0EDF7E03197F1F70196883C910536
:10F52000C1F78091C00087FFEDCF109208011DC088
:10F530008FEF80930A010FC080910B01809580931B
:10F540000B0180E090E0E0EDF7E03197F1F70196F4
:10F55000883C9105C1F78091C00087FFEDCF1092E4
:10F560000B0103C085E292EEEEC98091C00087FFD7
:10F57000FCCF8091C600EAC988E392EEE4C98CE131
:10F5800091EEE1C988249924933011F1943028F444
:10F59000913089F09230B8F408C0953061F195301F
:10F5A000F0F0963009F048C043C02B3109F042C951
:10F5B00091E06BE13FC96227C15DDE4F2883CF52E6
:10F5C000D14092E037C9B22FA0E0622793E032C960
:10F5D000822F90E0A82BB92B622794E02BC92E3004
:10F5E00009F039C3622795E0C05DDE4F19821882A9
:10F5F000C053D1401FC9E1E0F0E0EC0FFD1FC05D3A
:10F60000DE4F08811981C053D140E00FF11F2083E4
:10F610000F5F1F4FC05DDE4F19830883C053D14079
:10F6200062270A171B0709F005C9D80196E002C92D
:10F63000261709F010C303C0973009F0FBC87724E0
:10F640009981933109F412C19431C8F4963009F4C8
:10F65000D8C0973050F4923009F406C1933009F4C1
:10F660006DC0913009F059C253C0913109F477C08F
:10F67000923108F0BBC0903109F04FC2F5C098310B
:10F6800009F487C0993150F4953109F4EFC09531F0
:10F6900008F4C6C1963109F040C2C2C19A3109F4DA
:10F6A0006CC09A3108F491C09B3109F45BC09D3164
:10F6B00009F033C29D81903359F48F81882311F46E
:10F6C0009EE11CC0813011F091E018C098E916C08D
:10F6D000892F807591F0903539F4E0E0F0E089E011
:10F6E0008093570094910AC0983539F4E3E0F0E034
:10F6F00089E080935700949101C090E01A821B82A8
:10F700008D818C831D829E831F8227E030E009C299
:10F710001A8288E08B8381E48C8386E58D8382E581
:10F720008E8389E48F8383E5888780E589878FE5E9
:10F730008A8782E38B872BE030E0F3C18A818139AD
:10F7400041F0823941F0803911F48FE005C080E04A
:10F7500003C082E001C08AE01A828B8344C0772410
:10F76000739482C08D81882311F48EE12CC0813086
:10F7700011F081E028C088E926C01A82E1E0F0E0BB
:10F7800089E08093570084918B831C8224E030E0D1
:10F79000C8C18B81803589F48C81883039F4E2E0EE
:10F7A000F0E089E08093570084910DC0E0E0F0E044
:10F7B00089E080935700849106C0E3E0F0E089E09F
:10F7C0008093570084911A82DFCF8D81836C99E0FA
:10F7D000E1E0F0E0082E90935700E89507B600FCB2
:10F7E000FDCF1A821B8223E030E09BC180EC8A832C
:10F7F000CE5CDE4F188219821A821B82C253D1401E
:10F800008EC18A8190E0A0E0B0E0582F44273327D2
:10F8100022278B8190E0A0E0B0E0DC0199278827C7
:10F82000282B392B4A2B5B2B8D8190E0A0E0B0E098
:10F83000282B392B4A2B5B2B8C8190E0A0E0B0E089
:10F84000BA2FA92F982F8827282B392B4A2B5B2BCF
:10F85000220F331F441F551FC05EDE4F288339839C
:10F860004A835B83C052D1401A8259C13A81C95C34
:10F87000DE4F3883C753D140CA5CDE4F1882C6536F
:10F88000D1408B81C82EDD24CA5CDE4F488159816E
:10F89000C653D140C42AD52A933109F082C0CE5C28
:10F8A000DE4F88819981AA81BB81C253D1408050AB
:10F8B000904CA340B04030F583E0CE5CDE4FE88052
:10F8C000F9800A811B81C253D140F70100935B008C
:10F8D00080935700E89507B600FCFDCFCE5CDE4F65
:10F8E000088119812A813B81C253D14000501F4FAA
:10F8F0002F4F3F4FCE5CDE4F088319832A833B8313
:10F90000C253D140C05EDE4F488159816A817B81FC
:10F91000C052D140DE011B9631E08C9111962C91A2
:10F9200011971296C75CDE4F2883C953D140C85C3B
:10F93000DE4F1882C853D14090E0C85CDE4FE881AA
:10F94000F981C853D1408E2B9F2B0C01FA01609393
:10F950005B0030935700E89511244E5F5F4F6F4F67
:10F960007F4F0EEFE02E0FEFF02ECE0CDF1CC114F8
:10F97000D10499F685E0C05EDE4F088119812A81A5
:10F980003B81C052D140F80120935B008093570027
:10F99000E89507B600FCFDCF81E180935700E8951C
:10F9A00035C0C05EDE4F88819981AA81BB81C0527B
:10F9B000D140B695A795979587957C018601ABE0D8
:10F9C000AA2EB12CAC0EBD1E0BC0D5016D915D01F0
:10F9D000C7010F947FFE0894E11CF11C01501040F8
:10F9E0000115110591F7A60160E070E0440F551F65
:10F9F000661F771FC05EDE4FE880F9800A811B8199
:10FA0000C052D1404E0D5F1D601F711F1A82C05E33
:10FA1000DE4F488359836A837B83C052D1407FC0C5
:10FA2000FA80C55CDE4FF882CB53D140C65CDE4F16
:10FA30001882CA53D1408B81C82EDD24C65CDE4FAC
:10FA400008811981CA53D140C02AD12A1A828981DA
:10FA5000BE016D5F7F4F843121F59601C05EDE4FA0
:10FA6000E880F9800A811B81C052D1400BBFF701A9
:10FA700087919691DB018C9311969C936E5F7F4FDB
:10FA8000D801C7010296A11DB11DC05EDE4F88835B
:10FA90009983AA83BB83C052D14022503040F1F6F3
:10FAA00036C0C05EDE4F288139814A815B81C052F9
:10FAB000D1400894C108D108760100E010E0089414
:10FAC000C11CD11C0894E11CF11C011D111DE20E8A
:10FAD000F31E041F151F21BDBB27A52F942F832FB5
:10FAE00082BD2F5F3F4F4F4F5F4FF89A80B5DB01CC
:10FAF0008D93BD012E153F054007510761F7C05E8C
:10FB0000DE4F288339834A835B83C052D1409601FC
:10FB10002D5F3F4FFB01108204C080EC8A8322E0FE
:10FB200030E08BE18093C6008091C00086FFFCCF5F
:10FB30008091C00080648093C000C15DDE4FF88179
:10FB4000CF52D140F093C6008091C00086FFFCCF19
:10FB50008091C00080648093C000432F3093C60022
:10FB60008091C00086FFFCCF8091C00080648093AC
:10FB7000C000922F2093C6008091C00086FFFCCF6A
:10FB80008091C00080648093C0008EE08093C600A6
:10FB90008091C00086FFFCCF8091C000806480937C
:10FBA000C00065E1C15DDE4FE880CF52D1406E25D7
:10FBB00069276427FE01319610C090819093C6009A
:10FBC0008091C00086FFFCCF31968091C000806498
:10FBD0008093C0006927215030402115310569F715
:10FBE0006093C6008091C00086FFFCCF8091C0006A
:10FBF00080648093C00085B1805885B9772081F4F6
:10FC0000C15DDE4F0881CF52D1400F5FC15DDE4F35
:10FC10000883CF52D14090E0A0E0B0E00D941AF4F8
:10FC200027982F9880E090E020ED37E0F901319798
:10FC3000F1F7019684369105C9F700008091C00064
:10FC40008D7F8093C00081E180935700E895EE2777
:10FC5000FF270994FFCF90E00D941AF497FB092E2B
:10FC600007260AD077FD04D02ED006D000201AF443
:10FC7000709561957F4F0895F6F7909581959F4F08
:10FC80000895A1E21A2EAA1BBB1BFD010DC0AA1FDD
:10FC9000BB1FEE1FFF1FA217B307E407F50720F0F5
:10FCA000A21BB30BE40BF50B661F771F881F991F70
:10FCB0001A9469F760957095809590959B01AC01B9
:10FCC000BD01CF010895AA1BBB1B51E107C0AA1FAC
:10FCD000BB1FA617B70710F0A61BB70B881F991FED
:10FCE0005A95A9F780959095BC01CD010895F99991
:10FCF000FECF92BD81BDF89A992780B50895262F31
:10FD0000F999FECF1FBA92BD81BD20BD0FB6F89400
:0EFD1000FA9AF99A0FBE01960895F894FFCF63
:00000001FF
