:100000000C94D6000C94FE000C94FE000C94FE00A0
:100010000C94FE000C94FE000C94FE000C94FE0068
:100020000C94FE000C94FE000C94FE000C94FE0058
:100030000C94FE000C94FE000C94FE000C94FE0048
:100040000C94560E0C94FE000C94240E0C94FE0D91
:100050000C94FE000C94FE000C94FE000C94FE0028
:100060000C94A00E0C94FE0007634236B79BD8A7F1
:100070001A39685618AEBAAB558C1D3CB7CC5763CD
:10008000BD6DEDFD753EF6177231BF000000803F7B
:1000900008000000BE922449123EABAAAA2ABECD97
:1000A000CCCC4C3E00000080BEABAAAAAA3E000009
:1000B0000000BF000000803F000000000008417801
:1000C000D3BB4387D1133D190E3CC3BD4282AD2B38
:1000D0003E68EC8276BED98FE1A93E4C80EFFFBE30
:1000E00001C4FF7F3F000000000000000000250069
:1000F00028002B0000000008000201000003040794
:1001000000000000000000000000000024002700A4
:100110002A00010204081020408001020408102077
:10012000010204081020040404040404040402026C
:1001300002020202030303030303436F756C64208E
:100140006E6F742066696E6420612076616C6964EC
:1001500020424D503238302073656E736F722C2000
:10016000636865636B20776972696E672100424D31
:1001700050323830207465737400417070726F783B
:1001800020616C746974756465203D20005072654F
:100190007373757265203D200054656D70657261E2
:1001A00074757265203D2000BF0FB11311241FBE6E
:1001B000CFEFD8E0DEBFCDBF23E0A4E9B1E001C0BE
:1001C0001D92AD37B207E1F711E0A0E0B1E0E4E83D
:1001D000F6E302C005900D92A439B107D9F710E0FB
:1001E000C5EDD0E004C02197FE010E94FB19C43D7B
:1001F000D107C9F70E9440100C94351B0C940000E5
:10020000EDE5F2E0A089B18982E08C93A485B58503
:100210001C92A685B7858FEC8C93108EA489B58926
:1002200086E08C93A289B3898C9180618C93A2899A
:10023000B3898C9188608C93A289B3898C918068F2
:100240008C930288F389E02D80818F7D80830895CF
:10025000AF92BF92CF92DF92EF92FF920F931F93D4
:10026000CF93DF936C017B018B01040F151FEB0112
:100270005E01AE18BF08C017D10759F06991D601C9
:10028000ED91FC910190F081E02DC6010995892B3B
:1002900079F7C501DF91CF911F910F91FF90EF90FA
:1002A000DF90CF90BF90AF9008950895089508957E
:1002B000FC01538D448D252F30E0842F90E0821B6C
:1002C000930B541710F0CF96089501970895FC01F1
:1002D000918D828D981761F0A28DAE0FBF2FB11D49
:1002E0005D968C91928D9F5F9F73928F90E00895A1
:1002F0008FEF9FEF0895FC01918D828D981731F05B
:10030000828DE80FF11D858D90E008958FEF9FEFAE
:100310000895FC01918D228D892F90E0805C9F4F84
:10032000821B91098F73992708958DE592E00E94B1
:10033000890121E0892B09F420E0822F089580E0D3
:1003400090E0892B29F00E94950181110C94000006
:100350000895FC01A48DA80FB92FB11DA35ABF4F5A
:100360002C91848D90E001968F739927848FA689B4
:10037000B7892C93A089B1898C91837080648C9308
:10038000938D848D981306C00288F389E02D8081B7
:100390008F7D80830895EF92FF920F931F93CF93E9
:1003A000DF93EC0181E0888F9B8D8C8D98131AC0B0
:1003B000E889F989808185FF15C09FB7F894EE8997
:1003C000FF896083E889F9898081837080648083F4
:1003D0009FBF81E090E0DF91CF911F910F91FF903F
:1003E000EF900895F62E0B8D10E00F5F1F4F0F73E7
:1003F0001127E02E8C8D8E110CC00FB607FCFACFA2
:10040000E889F989808185FFF5CFCE010E94A90195
:10041000F1CFEB8DEC0FFD2FF11DE35AFF4FF08272
:100420009FB7F8940B8FEA89FB8980818062CFCFD8
:100430000F931F93CF93DF938C01D0E0C0E0F801BE
:10044000EC0FFD1F6491662341F08DE592E00E9460
:10045000CB01892B11F02196F2CFCE01DF91CF9104
:100460001F910F910895CF93DF93EC01888D88231E
:10047000B9F0AA89BB89E889F9898C9185FD03C007
:10048000808186FD0DC00FB607FCF7CF8C9185FFEC
:10049000F2CF808185FFEDCFCE010E94A901E9CF87
:1004A000DF91CF91089590E0FC01EC50FF4F249133
:1004B000FC01EE5EFE4F3491FC01EA5DFE4FE491DB
:1004C000EE23C9F0222339F0233001F1A8F42130C2
:1004D00019F1223029F1F0E0EE0FFF1FE651FF4F36
:1004E000A591B4918FB7F894EC91611126C0309525
:1004F0003E233C938FBF08952730A9F02830C9F0E0
:10050000243049F7809180008F7D03C08091800066
:100510008F7780938000DFCF84B58F7784BDDBCF6A
:1005200084B58F7DFBCF8091B0008F778093B00032
:10053000D2CF8091B0008F7DF9CF3E2BDACFCF9311
:10054000DF9390E0FC01EE5EFE4F24918A5D9E4FAA
:10055000FC0184918823D1F090E0880F991FFC0161
:10056000E85FFE4FA591B491FC01E651FF4FC591A4
:10057000D49161110EC09FB7F8948C91E22FE09551
:100580008E238C932881E223E8839FBFDF91CF9154
:1005900008958FB7F894EC91E22BEC938FBFF6CFD0
:1005A0008230910538F0880F991F880F991F0597A1
:1005B0000197F1F708953FB7F8948091DE0190918B
:1005C000DF01A091E001B091E10126B5A89B05C033
:1005D0002F3F19F00196A11DB11D3FBFBA2FA92FC2
:1005E000982F8827BC01CD01620F711D811D911DBF
:1005F00042E0660F771F881F991F4A95D1F708952B
:100600008F929F92AF92BF92CF92DF92EF92FF9222
:100610004B015C010E94DB026B017C010E94DB024A
:100620006C197D098E099F09683E7340810591050B
:10063000A8F321E0821A9108A108B10888EEC80E3B
:1006400083E0D81EE11CF11C81149104A104B104C3
:1006500029F7FF90EF90DF90CF90BF90AF909F90E1
:100660008F9008952FB7F8946091DA017091DB01B3
:100670008091DC019091DD012FBF08958FB7F89430
:100680008091D8018FBF0895AF92BF92CF92DF9231
:10069000EF92FF920F931F93CF93DF93EC0188812A
:1006A0009981892B89F06EBD0DB407FEFDCFBEB4D4
:1006B0008B2DDF91CF911F910F91FF90EF90DF90E5
:1006C000CF90BF90AF9008958885998511E0892BD0
:1006D00009F010E8AA24A394862F812309F0A12C05
:1006E000062F2C813D814E815F8160E271EA87E0B7
:1006F00090E00E944315F22EB02EE12CC22ED12C98
:10070000FF2019F0C6010E94D0028A85877F09F078
:1007100042C08D858F3F89F0902F912381E009F4AD
:1007200080E08A1551F0EF85F8898F89992369F166
:100730009081892B8083AA24A394E989FA898081F6
:10074000998D892B8083FF2019F0C6010E94D00269
:100750008E858F3F39F0EB89FC898081988D8923C4
:1007600009F0E12AE989FA899081898D80958923A8
:1007700080838E858F3F09F0BE2C88859985892BD3
:10078000B9F5110F1111BCCF93CF908180958923BA
:100790008083A12CD2CFE989FA898081998D892B18
:1007A0008083FF2019F0C6010E94D0028D858F3F03
:1007B00049F0EF85F8898F89902F9123A9F09081D6
:1007C000892B8083E989FA899081898D8095892395
:1007D00080838E858F3F69F2EB89FC898081988DBB
:1007E000892339F2E12AC5CF908180958923E9CF09
:1007F0001695C8CF8CBD9DBD0895CF92DF92EF9224
:10080000FF920F931F93CF93DF93EC018B016A014B
:10081000790188819981892B31F0EA81FB8180817E
:1008200091810E94FA0360E08B850E945302F801D7
:100830006081CE010E9444038601EC0CFD1C6FEF29
:10084000CE010E944403F80181938F01EE15FF054C
:10085000B1F761E08B850E94530281E0DF91CF9177
:100860001F910F91FF90EF90DF90CF900895089522
:1008700008952091B501260F3327331F213231050A
:10088000ECF420913302FC0190E080E0243069F028
:1008900082E00895A091B5012191AC014B565E4FC5
:1008A000A40FB52FB11D2C930196861798F3809154
:1008B000B501680F6093B50180E0089581E0089567
:1008C0001092330281E08093320210920D0261E0B7
:1008D00082E10E94530261E083E10E945302E9EB4E
:1008E000F0E080818E7F808380818D7F808388E4AB
:1008F0008093B80085E48093BC000895CF93DF9384
:1009000091E0909394018823B9F0C091B800D09100
:10091000BA008091BC008A7B8093BC0060E082E1D9
:100920000E94530260E083E10E9453020E9460042F
:10093000D093BA00C093B800DF91CF9108958F9201
:100940009F92AF92BF92CF92DF92EF92FF920F935E
:100950001F93CF93DF93D0915C02D13208F0D7C0C0
:10096000182FC0915B020E94DB026B017C01809119
:10097000330281116BC082E0809333021093320204
:100980008FEF8093310210923002D0932F02ABE3AD
:10099000B2E0EFE0F2E080E0D81391C010920E02D6
:1009A00080910E02CC0FC82BC0930E0280910D02D5
:1009B000813009F088C010920D020E94DB026B01A9
:1009C0007C0180910E028093BB0080913502909152
:1009D0003602A0913702B0913802892B8A2B8B2BDB
:1009E000A1F00E94DB0200913502109136022091A5
:1009F0003702309138026C197D098E099F0906175C
:100A000017072807390708F442C08091BC0083FD0E
:100A1000D8CF85EC8093BC000E94DB026B017C0187
:100A200080913302823009F450C0809131028F3FAF
:100A300009F46FC080913102803209F46CC080915A
:100A40003102803309F469C084E026C08091350208
:100A500090913602A0913702B0913802892B8A2BEF
:100A60008B2B09F484CF0E94DB028090350290909A
:100A70003602A0903702B09038026C197D098E09B9
:100A80009F0986169706A806B90608F070CF8091D0
:100A900034020E947E0485E010923A0210925C02B9
:100AA00010923902DF91CF911F910F91FF90EF903B
:100AB000DF90CF90BF90AF909F908F9008959D91C1
:100AC00091938F5F69CF85EEA5CF8091350290918C
:100AD0003602A0913702B0913802892B8A2B8B2BDA
:100AE00009F49ECF0E94DB0200913502109136027C
:100AF00020913702309138026C197D098E099F09C7
:100B0000061717072807390708F08ACFC0CF81E0FA
:100B1000C3CF80E0C1CF82E0BFCF83E0BDCF1F93C2
:100B2000CF93DF93EA01122FDC0111968D919C91F6
:100B3000DC01ED91FC910280F381E02D0995C8174D
:100B4000D90729F4812F0E949F0491E0811190E040
:100B5000892FDF91CF911F910895CF93DF93EC01FF
:100B60008B818823A1F0888191E090933902809352
:100B70005B0210923A0210925C0281E00E949F0494
:100B800091E0811190E0892FDF91CF91089510922B
:100B9000EC011092EB0110923A0210925C020E945A
:100BA000600486E591E09093E4018093E30187E59A
:100BB00091E09093E6018093E50181E08B83CE0183
:100BC0000E94AD05982F8111CECFDDCFE091EC01D1
:100BD0008091EB01E81730F4F0E0E351FE4F8081A3
:100BE00090E008958FEF9FEF08959091EC01809130
:100BF000EB012FEF3FEF981748F4E92FF0E0E351B6
:100C0000FE4F208130E09F5F9093EC01C901089571
:100C10008091EB019091EC01891B990B0895CF9283
:100C2000DF92EF92FF920F931F93CF93DF937C019C
:100C3000CB018A0120913902222389F0EB016B015B
:100C4000C40ED51ECC15DD0569F06991D701ED9173
:100C5000FC910190F081E02DC7010995F3CF642F3D
:100C60000E943904C801DF91CF911F910F91FF902D
:100C7000EF90DF90CF900895CF93DF931F92CDB781
:100C8000DEB76983209139022223F9F020915C02BA
:100C9000203258F021E030E0FC013383228390E0E1
:100CA00080E00F90DF91CF91089580913A02E82F74
:100CB000F0E0E55CFD4F998190838F5F80933A026D
:100CC00080935C0281E090E0ECCF61E0CE01019680
:100CD0000E943904F7CF90E080E008950F931F93AE
:100CE000CF93DF9300D0CDB7DEB76A83E0914E0398
:100CF000F0914F033097F9F08983848195810297B1
:100D000098F0808191E09093390280935B02109279
:100D10003A0210925C0221E042E050E0BE016F5FB7
:100D20007F4FCF010E948F050F900F90DF91CF91E1
:100D30001F910F9108958F7789830091500310912F
:100D40005103D8018D919C911197892B39F01296FE
:100D5000ED91FC91808191810E94FA0360E0F8019D
:100D600083850E9453026981C8010E9444036A81FD
:100D7000C8010E94440361E0D8011B968C910E9437
:100D80005302D2CFCF93DF93C8E7D3E08770886E4A
:100D90008883E7E7F3E0962F9770990F990F990FE3
:100DA0008081807C242F2770892B822B808395E083
:100DB000440F551F9A95E1F787FB882780F9482B48
:100DC000660F771F660F771F642B85EF0E946E06F4
:100DD0008881682F677090E2699FB0011124282FE5
:100DE000269526952695277094E0299F9001112439
:100DF000622B8295869586958370682B84EFDF91B0
:100E0000CF910C946E062F923F924F925F926F9209
:100E10007F928F929F92AF92BF92CF92DF92EF928A
:100E2000FF920F931F93CF93DF93DC011496ED9104
:100E3000FC911597EF2B09F425C169012A01EC01FA
:100E4000888191E09093390280935B0210923A027C
:100E500010925C0220E041E050E0CD010E948F053D
:100E6000782E882309F40EC1F12CE12C332433941D
:100E70008C819D8186010E191F098017910708F446
:100E80008C0128800E94DB024B015C0180913302BF
:100E9000811173C0602EB0E2B01710F480E2682EAA
:100EA0003092330221E0C601801B910BE816F9064F
:100EB00008F420E020933202EFEFE0933102109229
:100EC00030028FEF860D80932F0230920E028091B8
:100ED0000E02220C282A20920E0280910D028130EF
:100EE00009F090C010920D020E94DB024B015C01E0
:100EF00080910E028093BB00809135029091360262
:100F0000A0913702B0913802892B8A2B8B2BA1F04C
:100F10000E94DB0220913502309136024091370267
:100F200050913802681979098A099B0926173707F1
:100F30004807590708F442C08091BC0083FDD8CF10
:100F4000F5ECF093BC000E94DB024B015C01809148
:100F50003302813009F45AC080913002861510F4B2
:100F600060903002AFE0B2E0EDEEF1E080E0861597
:100F700051F19D9191938F5FFACF809135029091BD
:100F80003602A0913702B0913802892B8A2B8B2B25
:100F900009F47CCF0E94DB022091350230913602A9
:100FA0004091370250913802681979098A099B09E2
:100FB000261737074807590708F068CF8091340291
:100FC0000E947E04612C1092EC016092EB0160168D
:100FD000110609F057C042018E0C9F1C5401C50137
:100FE000881999098017910798F589819A81DC0100
:100FF000ED91FC910284F385E02D0995F501819333
:101000005F01EDCF85EE8093BC009DCF80913502CE
:1010100090913602A0913702B0913802892B8A2B29
:101020008B2B09F494CF0E94DB0220913502309182
:1010300036024091370250913802681979098A09BD
:101040009B09261737074807590708F080CFB6CF06
:10105000E00EF11EEC14FD0408F40ACF872DDF9199
:10106000CF911F910F91FF90EF90DF90CF90BF90A5
:10107000AF909F908F907F906F905F904F903F9038
:101080002F900895712CEACFCF93DF9300D0CDB786
:10109000DEB7E0914E03F0914F03898322E030E008
:1010A000AE014F5F5F4FBA01309751F0CF010E9400
:1010B000030789819A810F900F90DF91CF91089556
:1010C00080915003909151030E94FD03F2CFCF9382
:1010D000DF9300D01F92CDB7DEB7FC0182819381F0
:1010E000698323E030E0AE014F5F5F4FBA010097A4
:1010F000A1F00E94030729816A8170E090E080E0FE
:10110000982F872F762F6627822B2B81622B0F90AB
:101110000F900F90DF91CF910895848195810E9467
:10112000FD03E9CF8F929F92AF92BF92CF92DF9251
:10113000EF92FF920F931F93CF93DF93EC016AEF2F
:101140000E9467080B891C8930E020E0C72ED82E4A
:10115000E92EFF24E7FCFA94C01AD10AE20AF30A46
:1011600057E095958795779567955A95D1F7000F34
:10117000111F221F331F4B015C01801A910AA20A22
:10118000B30AA5019401AD89BE890E94A7184B013D
:101190005C01FBE0B594A79497948794FA95D1F7F6
:1011A000A7019601C701B6010E9433159B01AC014E
:1011B000ACE05595479537952795AA95D1F7AF8916
:1011C000B88D0E94A7189B01AC01BEE055954795CC
:1011D00037952795BA95D1F7280D391D4A1D5B1D06
:1011E0002F87388B498B5A8BA5E0B0E00E9465159C
:1011F00060587F4F8F4F9F4F672F782F892F9927E8
:1012000087FD9A950E94161420E030E048EC52E4E5
:101210000E942316DF91CF911F910F91FF90EF90C5
:10122000DF90CF90BF90AF909F908F9008952F92B6
:101230003F924F925F926F927F928F929F92AF9266
:10124000BF92CF92DF92EF92FF920F931F93CF93B3
:10125000DF93CDB7DEB76D970FB6F894DEBF0FBE44
:10126000CDBF9D8F8C8F0E94920867EF8C8D9D8DD6
:101270000E946708688F798F8A8F9B8FEC8DFD8D18
:1012800087859089A189B2896C017D01FF0CCC080A
:10129000DC2C76019C01AD016C2D7C2D8C2D9C2DC0
:1012A000345F414051096109710981099109298718
:1012B0003A874B875C873B014C0159016A017B01EE
:1012C0008C010E94AF18322E232E4A8B5B8B6C8BC5
:1012D0007D8B8E8B9F8BAC8DBD8D5C963C915C978E
:1012E0005B962C91932F990F990B492F592F692FAA
:1012F000792F892F0E94AF180CE00E94A719522E57
:1013000039834D875E876F87788B898B492EEC8D6B
:10131000FD8D368D258D932F990F990BA32CB22C13
:10132000CA88DB88EC88FD880E891F89492F592FD0
:10133000692F792F892F0E94AF1808E00E94C019E9
:10134000A52CB980CD84DE84EF84F8880989142D1A
:101350000E94DD1970588F4F9F4FAC8DBD8D5996EF
:10136000ED91FC915F01D12CC12CE12CF12C870176
:10137000E983BA82CB82DC82ED82FE820F831887FA
:10138000C12CD12CE12CF12C00E010E00E94AF1810
:1013900001E20E94C0192983532E4D875E876F8713
:1013A000788B898B492EA0E00E94EF1909F43DC18A
:1013B000AC8DBD8D94963C91949793962C91932FE0
:1013C000990F990BA32CB22CCA88DB88EC88FD8876
:1013D0000E891F89492F592F692F792F892F0E9434
:1013E000AF1819014A8B5B8B6C8B7D8B8E8B9F8B1F
:1013F000EC8DFD8D32A121A1932F990F990BA9841A
:10140000BA84CB84DC8473018401492F592F692F5E
:10141000792F892F0E94AF1801E10E94A71951016D
:10142000CA88DB88EC88FD880E891F890E94DD1937
:1014300059016A017B01282E192F488D598D6A8D1B
:101440007B8D84E075956795579547958A95D1F77B
:1014500080E090E0A0E1B0E0841B950BA60BB70BF9
:101460003C014D01990C6608762C43019C01AD01AD
:10147000662D762D862D962D0FE10E94A719722ECE
:10148000832E942E652EB62FA72F382E9987EC8D9C
:10149000FD8D30A1278D932F990F990B492F592F2F
:1014A000692F792F892F03E20E94A719022D0E942C
:1014B000DD1959016A017B018C01272D382D492D39
:1014C000562D6B2F7A2F832D99850E94E619E5E31F
:1014D000AE2EFCE0BF2EC12CD12CE12CF12C00E073
:1014E00010E00E94AF18A980B52CCD84DE84EF8473
:1014F000F8880989142D0E94091929873A874B8792
:101500005C8769837D878E879F870DE00E94C01965
:10151000922E832E742E652E562E472E382E292E6F
:10152000AC8DBD8D9A963C919A9799962C91932F5C
:10153000990F990BA92CB82CC72CD62CE52CF42C80
:10154000032D122D492F592F692F792F892F0E9492
:10155000AF180E94AF1809E10E94C019A984BA848B
:10156000CB84DC84E980FD840E851F850E94DD1913
:1015700019012A013B014C01EC8DFD8D30A527A1FD
:10158000932F990F990B492F592F692F792F892F55
:101590000E94AF1803E10E94C01959016A017B0142
:1015A0008C019101A201B301C4010E94DD1908E080
:1015B0000E94C01959016A017B01E82F192FAC8DD7
:1015C000BD8D96963C91969795962C91932F990F59
:1015D000990B492F592F692F792F892F04E00E94E9
:1015E000A7190E2F0E94DD190E94C41620E030E0DA
:1015F00040E85BE30E9475146D960FB6F894DEBF69
:101600000FBECDBFDF91CF911F910F91FF90EF9053
:10161000DF90CF90BF90AF909F908F907F906F9012
:101620005F904F903F902F90089560E070E0CB0165
:10163000E3CFFC0101900020E9F73197AF01481B8F
:10164000590BBC018DE592E00C9428018F929F927A
:10165000AF92BF920F931F93CF93DF93CDB7DEB7B7
:10166000A1970FB6F894DEBF0FBECDBF19A24230CE
:1016700008F44AE08E010F5D1F4F842E912CB12C8F
:10168000A12CA50194010E944315E62FB901CA01BE
:10169000EA30F4F4E05DD801EE938D01232B242B86
:1016A000252B79F790E080E0109719F0CD010E948A
:1016B000190BA1960FB6F894DEBF0FBECDBFDF9118
:1016C000CF911F910F91BF90AF909F908F900895F1
:1016D000E95CE1CFCF93DF930E94190BEC0186E424
:1016E00091E00E94190B8C0F9D1FDF91CF910895FF
:1016F0004F925F926F927F928F929F92AF92BF9222
:10170000CF92DF92EF92FF920F931F93CF936B01D3
:101710007C01742EAC019B010E946D17882399F007
:1017200089E491E0CF911F910F91FF90EF90DF90AE
:10173000CF90BF90AF909F908F907F906F905F9071
:101740004F900C94190B46015701E894B7F82FEF0E
:101750003FEF4FE75FE7C501B4010E946D178111AC
:101760000DC02FEF3FEF4FE75FE7C501B4010E94C7
:101770000F1418161CF48DE491E0D4CF2FEF3FEF37
:101780004FE75FE4C701B6010E94181718161CF452
:1017900081E591E0C7CF2FEF3FEF4FE75FECC70147
:1017A000B6010E940F1487FDF3CF20E030E0A901BD
:1017B000C701B6010E940F1410E000E087FF0AC0C5
:1017C0006DE28DE592E00E94CB018C01F7FAF09476
:1017D000F7F8F094C0E060E070E080E09FE37C16F2
:1017E00041F020E030E040E251E40E942316CF5F58
:1017F000F6CFA70196010E94B7152B013C010E946C
:1018000095164B015C014AE00E94260B7C01E00E1C
:10181000F11ECC23C1F1C501B4010E9414149B0137
:10182000AC01C301B2010E94B6154B015C016EE22E
:101830008DE592E00E94CB01E80EF91EC15018F12F
:1018400020E030E040E251E4C501B4010E9475148B
:101850002B013C010E9495164B01B12CA12C4AE0B2
:10186000C501B4010E94260BE80EF91EC501B401A2
:101870000E9414149B01AC01C301B2010E94B61571
:101880004B015C01DBCFC701CF911F910F91FF90FE
:10189000EF90DF90CF90BF90AF909F908F907F9010
:1018A0006F905F904F900895EF92FF920F931F9368
:1018B000CF93DF9300D000D0CDB7DEB78DE592E0B7
:1018C0000E9467018DE592E00E9467018E010F5F23
:1018D0001F4F78018A3341F0F80181938F018DE524
:1018E00092E00E946701F6CFC7010E94E913182F0A
:1018F0008DE592E00E9467018053990B823091053B
:1019000020F4682F812F0E9453028DE592E00E94FF
:1019100067018A3011F08D30C1F78DE592E00E94A9
:101920007B018A3021F48DE592E00E9467010F90DF
:101930000F900F900F90DF91CF911F910F91FF901B
:10194000EF9008950C949D1A0C949D1A0F931F9379
:10195000CF93DF938C01EB01FB01349680E2DF0132
:101960001D928A95E9F784E290E0A0E0B0E08883D8
:101970009983AA83BB83F80183819481092E000C8B
:10198000AA0BBB0B8C839D83AE83BF8386E090E064
:10199000A0E0B0E088879987AA87BB870E943203BE
:1019A000688B798B8A8B9B8BD80115968D919C9136
:1019B0000E94170920E030E048EC52E40E94231610
:1019C0006C8B7D8B8E8B9F8B81E0DF91CF911F91F4
:1019D0000F9108950F931F93CF93DF938C01EB0129
:1019E000FB01349680E2DF011D928A95E9F784E2DB
:1019F00090E0A0E0B0E088839983AA83BB83F801DC
:101A000083819481092E000CAA0BBB0B8C839D83D0
:101A1000AE83BF838DE090E0A0E0B0E08887998737
:101A2000AA87BB870E943203688B798B8A8B9B8B3A
:101A3000D80115968D919C910E9492086C8B7D8B9C
:101A40008E8B9F8B81E0DF91CF911F910F91089535
:101A50000F931F93CF93DF938C01EB0188E2FB017F
:101A600011928A95E9F74BE050E065E571E0CE010F
:101A70000E94261B1B8681E090E0A0E0B0E08C87EE
:101A80009D87AE87BF87F80183819481092E000C62
:101A9000AA0BBB0B888B998BAA8BBB8B86E090E043
:101AA000A0E0B0E08C8B9D8BAE8BBF8B1CA21DA2E7
:101AB0001EA21FA280E090E0A6E9B3E48C8F9D8F68
:101AC000AE8FBF8F80E090E8A9E8B4E4888F998F4B
:101AD000AA8FBB8F86EA9BE9A4E4BCE388A399A301
:101AE000AAA3BBA3DF91CF911F910F9108950F93EC
:101AF0001F93CF93DF938C01EB0188E2FB011192DE
:101B00008A95E9F74BE050E065E571E0CE010E946F
:101B1000261B1B8681E090E0A0E0B0E08C879D87CB
:101B2000AE87BF87F80183819481092E000CAA0B30
:101B3000BB0B888B998BAA8BBB8B8DE090E0A0E0D0
:101B4000B0E08C8B9D8BAE8BBF8B1CA21DA21EA206
:101B50001FA280E090E0A0E2B2EC8C8F9D8FAE8F50
:101B6000BF8F80E090E0AAEAB2E4888F998FAA8FB5
:101B7000BB8F8AE097EDA3E2BCE388A399A3AAA355
:101B8000BBA3DF91CF911F910F91089585ED8093B5
:101B9000BC008091350290913602A0913702B0913D
:101BA00038020796A11DB11D23E0B695A79597951C
:101BB00087952A95D1F72091BC0024FD03C010928F
:101BC00033020895409135025091360260913702F8
:101BD00070913802452B462B472B69F30097A105DE
:101BE000B10541F025E32A95F1F700000197A1091D
:101BF000B109E1CF809134020C947E041F920F92C0
:101C00000FB60F9211242F933F934F935F936F93CF
:101C10007F938F939F93AF93BF93EF93FF938DE544
:101C200092E00E94A901FF91EF91BF91AF919F9126
:101C30008F917F916F915F914F913F912F910F9075
:101C40000FBE0F901F9018951F920F920FB60F9214
:101C500011242F938F939F93EF93FF93E0916D0245
:101C6000F0916E028081E0917302F091740282FD26
:101C70001BC09081809176028F5F8F7320917702D5
:101C8000821741F0E0917602F0E0E35AFD4F958F24
:101C900080937602FF91EF919F918F912F910F90FA
:101CA0000FBE0F901F9018958081F4CF1F920F9256
:101CB0000FB60F9211242F933F938F939F93AF935F
:101CC000BF938091DA019091DB01A091DC01B0918A
:101CD000DD013091D90123E0230F2D3758F501960E
:101CE000A11DB11D2093D9018093DA019093DB01EE
:101CF000A093DC01B093DD018091DE019091DF01C2
:101D0000A091E001B091E1010196A11DB11D809368
:101D1000DE019093DF01A093E001B093E101BF9158
:101D2000AF919F918F913F912F910F900FBE0F9088
:101D30001F90189526E8230F0296A11DB11DD2CF42
:101D40001F920F920FB60F9211242F933F934F9330
:101D50005F936F937F938F939F93AF93BF93EF9313
:101D6000FF938091B900887F803609F44AC0F0F56E
:101D7000883209F4A7C018F5803109F49BC0B8F483
:101D8000882309F4F9C0883009F494C0FF91EF91D9
:101D9000BF91AF919F918F917F916F915F914F9183
:101DA0003F912F910F900FBE0F901F901895883183
:101DB00009F488C0803251F78093310214C0803416
:101DC00009F49DC040F48033B9F38833F9F6809369
:101DD000310285ECB0C0803509F485C0883509F43E
:101DE00096C0883499F60E94C60DD0CF883909F480
:101DF0008CC038F5883729F050F4883611F08037D8
:101E000029F683E0809333021092D70157C08838B7
:101E100009F47BC0803919F0803809F0B7CF809180
:101E2000D701803208F071C0E091D70181E08E0FB8
:101E30008093D7018091BB00F0E0E954FE4F80838E
:101E40003DC0803B39F0E0F4803A09F479C0883A2B
:101E500009F09CCF84E0809333021092B601109277
:101E6000B501E091E301F091E40109958091B5019C
:101E700081110FC081E08093B5011092950109C0D6
:101E8000803C09F4A6CF883C09F4A3CF883B09F035
:101E90007DCFE091B60181E08E0F8093B601F0E036
:101EA000EB56FE4F80818093BB009091B6018091EC
:101EB000B50129C080910E028093BB0085EC809310
:101EC000BC0064CF9091300280912F02981758F592
:101ED000E091300281E08E0F80933002F0E0E15F0C
:101EE000FD4F8081E9CFE091300281E08E0F809339
:101EF00030028091BB00F0E0E15FFD4F8083909164
:101F0000300280912F029817C8F285E8D8CFE0916F
:101F1000300281E08E0F809330028091BB00F0E0B0
:101F2000E15FFD4F80838091320281115CCF81E0BF
:101F300080930D0284EA8093BC001092330226CF76
:101F400085EC8093BC00109233028091D7018032DF
:101F500030F4E091D701F0E0E954FE4F1082609137
:101F6000D70170E0E091E501F091E60187EB91E0A7
:101F700009951092D7010ACF1092310234CFCF9336
:101F8000DF93EDE5F2E01382128288EE93E0A0E0A9
:101F9000B0E084839583A683B7832AE031E0318360
:101FA000208325EC30E03587248724EC30E0378728
:101FB000268720EC30E0318B208B21EC30E0338B16
:101FC000228B22EC30E0358B248B26EC30E0378BF3
:101FD000268B118E128E138E148EE0E4F3E01382A2
:101FE000128284839583A683B7838CE191E09183E9
:101FF0008083AAEFB2E016961D921D921D921C924C
:1020000019971A961D921D921D921C921D971E964D
:102010001D921D921D921C92519752961D921D92D7
:102020001D921C925597CCE4D3E01B821A821D822C
:102030001C821BA61CA6F983E88387E090E00E941F
:10204000011AFC018CE391E09183808388E191E0A7
:1020500094838383D683C583FF83EE8387E090E0F8
:102060000E94011AFC018EE291E091838083148228
:102070001382D683C583F987E887DF91CF910895CE
:10208000CF93DF931F92CDB7DEB7789484B582608B
:1020900084BD84B5816084BD85B5826085BD85B50C
:1020A000816085BD80916E00816080936E0010928A
:1020B0008100809181008260809381008091810005
:1020C0008160809381008091800081608093800096
:1020D0008091B10084608093B1008091B0008160F4
:1020E0008093B00080917A00846080937A00809120
:1020F0007A00826080937A0080917A008160809378
:102100007A0080917A00806880937A001092C100F2
:1021100010923C0310923D0310923E0310923F0335
:102120001092FC021092FD021092FE021092FF0229
:102130000E9432036B017C014B015C0128EB820E93
:102140002BE0921EA11CB11C0E9432036C157D0570
:102150008E059F0528F086169706A806B906A0F7F3
:1021600068EE73E080E090E00E9400030E940001AE
:102170000E9432036093FC027093FD028093FE0282
:102180009093FF028CE591E00E94190B0E943203AC
:102190006B017C014B015C013AE0830E911CA11C98
:1021A000B11C0E9432036C157D058E059F0528F039
:1021B00086169706A806B906A0F781E0809310035B
:1021C0000E9432036093FC027093FD028093FE0232
:1021D0009093FF028DE691E00E94190B0E9400018E
:1021E0008EE691E00E94180286E491E00E94190BAD
:1021F00000915003109151030115110509F046C0DB
:1022000080914E0390914F03009711F00E949D1A08
:1022100086E090E00E94011A8C0180914C0390911D
:102220004D0326E7F801208392838183138280E2A5
:1022300090E09583848310934F0300934E03109294
:10224000EC011092EB0110923A0210925C020E9493
:10225000600486E591E09093E4018093E30187E5D3
:1022600091E09093E6018093E50181E0F80183839A
:10227000C8010E94AD0581114FC08AE391E00E9420
:10228000180286E491E00E94190BC5C061E0F801D4
:1022900083850E949F0261E0F80183850E945302BA
:1022A000F80180819181892B09F4B0C1FFB6F894BF
:1022B0008091E201811127C0E0E3F1E08491ECE13B
:1022C000F1E09491E82FF0E0EE0FFF1FE85FFE4F82
:1022D000A591B491EC91E92321F461E08AE00E9498
:1022E000530261E08AE00E949F028CB580618CBD40
:1022F0008CB580648CBD61E08DE00E949F0261E03E
:102300008BE00E949F028091E2018F5F8093E20147
:10231000FFBE81E0F801838F80914E0390914F03BF
:10232000009709F495C120ED298321E030E0AE014A
:102330004F5F5F4FBA010E9403078981883509F01A
:102340009CCF88E80E9444089093600380935F03C9
:102350008AE80E94440890936203809361038CE8AA
:102360000E94440890936403809363038EE80E9464
:102370004408909366038093650380E90E944408B3
:10238000909368038093670382E90E9444089093C6
:102390006A038093690384E90E94440890936C0364
:1023A00080936B0386E90E94440890936E038093A8
:1023B0006D0388E90E9444089093700380936F0333
:1023C0008AE90E94440890937203809371038CE918
:1023D0000E94440890937403809373038EE90E94D3
:1023E0004408909376038093750350E040E070E0DA
:1023F00060E085E090E00E94C20664E670E080E064
:1024000090E00E94000347E050E064E070E082E06A
:1024100090E00E94C20600E010E084EF882E99242C
:102420009394A12CB12C0E943203672B682B692B4B
:1024300009F41DC10E943203C090E701D090E80169
:10244000E090E901F090EA016C157D058E059F058D
:1024500008F47EC1C090E701D090E801E090E90166
:10246000F090EA019B01AC012C193D094E095F096E
:1024700069017A013AEFC316D104E104F10408F4CA
:10248000FEC06093E7017093E8018093E9019093A7
:10249000EA018092080390920903A0920A03B09285
:1024A0000B0310920C0310920D0310920E03109266
:1024B0000F038091000390910103A0910203B0915A
:1024C00003038093040390930503A0930603B09342
:1024D00007030E943203609300037093010380930B
:1024E0000203909303038DE592E00E947B01843602
:1024F00011F40E94540C0E9432036093FC0270930A
:10250000FD028093FE029093FF020E9432036B0152
:102510007C0184E791E00E94190B4AE061E070E0E1
:1025200080E090E00E94260B8BE791E00E94190B5F
:102530004AE0C701B6010E94260B8DE791E00E9498
:10254000190B8091000390910103A0910203B091B7
:102550000303A7019601281B390B4A0B5B0BCA0129
:10256000B9014AE00E94260B8DE791E00E94190B09
:102570006091000370910103809102039091030325
:10258000C0900403D0900503E0900603F090070389
:102590006C197D098E099F094AE00E94260B8FE77E
:1025A00091E00E94190B0E9432034AE00E94260B20
:1025B00081E891E00E946A0B0E9432032B013C01EA
:1025C0007C016B0132E0C30ED11CE11CF11C0E94A6
:1025D0003203641575058605970528F0C616D706DB
:1025E000E806F906A0F78DE592E00E947B018436AB
:1025F00011F40E94540C0E94320360930003709304
:102600000103809302039093030339C061E0848542
:102610000E949F02F80182858B7F60E009F061E0F3
:1026200084850E945302F80185858F3F41F061E067
:102630000E949F0261E0F80185850E945302F80123
:1026400086858F3F09F465CE60E00E949F0261CECF
:1026500080ED898321E030E0AE014F5F5F4FBA012A
:1026600080915003909151030E94FD0366CE0E9419
:102670003203623071058105910508F0DBCE89E9EE
:1026800091E00E9418028CE493E00E94920842E0DC
:102690000E94780B88E891E00E946A0B8DE891E037
:1026A0000E9418028CE493E00E94170923EC37EC97
:1026B00045EF5BE30E94751442E00E94780B8CE8C2
:1026C00091E00E946A0B8AE791E00E9418028CE474
:1026D00093E00E94170920E030E048EC52E40E94A9
:1026E000231620E030E54DE754E40E94231621E054
:1026F0003EED42E45EE30E941D179B01AC0160E0E9
:1027000070E080E89FE30E94B61520E03AE24DE2D7
:1027100057E40E94751442E00E94780B80E991E032
:102720000E946A0B86E491E00E94190B60ED77E04D
:1027300080E090E00E9400030115110509F473CEBA
:102740000E949501882309F46ECE0E9400006BCE92
:102750006093E7017093E8018093E9019093EA01A7
:1027600079CECF93DF93C0915003D091510320973E
:1027700049F08A819B81009711F00E949D1ACE0139
:102780000E949D1A80914E0390914F03009711F083
:102790000E949D1A8091520390915303009739F043
:1027A000DC01ED91FC910280F381E02D099580918F
:1027B000540390915503009749F0DC01ED91FC9191
:1027C0000280F381E02DDF91CF910994DF91CF91C9
:1027D0000895FC0188279927E89421912032E9F394
:1027E000293010F02E30C8F32B3241F02D3239F45D
:1027F000689404C00E940714820F911D21912053F8
:102800002A30C0F31EF4909581959F4F08957AE089
:10281000979F902D879F802D910D112408950E94E0
:10282000511408F481E00895E89409C097FB3EF440
:1028300090958095709561957F4F8F4F9F4F99230D
:10284000A9F0F92F96E9BB279395F695879577958B
:102850006795B795F111F8CFFAF4BB0F11F460FF4B
:102860001BC06F5F7F4F8F4F9F4F16C0882311F0A3
:1028700096E911C0772321F09EE8872F762F05C0B7
:10288000662371F096E8862F70E060E02AF09A9552
:10289000660F771F881FDAF7880F9695879597F947
:1028A0000895990F0008550FAA0BE0E8FEEF1616E1
:1028B0001706E807F907C0F012161306E407F50734
:1028C00098F0621B730B840B950B39F40A2661F0A8
:1028D000232B242B252B21F408950A2609F4A1404B
:1028E000A6958FEF811D811D08950E9488140C9478
:1028F000F9140E94EB1438F00E94F21420F0952392
:1029000011F00C94E2140C94E81411240C942D157D
:102910000E940A1570F3959FC1F3950F50E0551F63
:10292000629FF001729FBB27F00DB11D639FAA2724
:10293000F00DB11DAA1F649F6627B00DA11D661F73
:10294000829F2227B00DA11D621F739FB00DA11D94
:10295000621F839FA00D611D221F749F3327A00D4E
:10296000611D231F849F600D211D822F762F6A2FEA
:1029700011249F5750409AF0F1F088234AF0EE0F4F
:10298000FF1FBB1F661F771F881F91505040A9F77C
:102990009E3F510580F00C94E2140C942D155F3F7E
:1029A000E4F3983ED4F3869577956795B795F795B8
:1029B000E7959F5FC1F7FE2B880F911D9695879530
:1029C00097F9089597F99F6780E870E060E00895AF
:1029D0009FEF80EC089500240A9416161706180637
:1029E0000906089500240A94121613061406050613
:1029F0000895092E0394000C11F4882352F0BB0FA4
:102A000040F4BF2B11F460FF04C06F5F7F4F8F4F06
:102A10009F4F089557FD9058440F551F59F05F3F41
:102A200071F04795880F97FB991F61F09F3F79F0F0
:102A300087950895121613061406551FF2CF469572
:102A4000F1DF08C0161617061806991FF1CF8695F4
:102A50007105610508940895E894BB2766277727D8
:102A6000CB0197F90895DB018F939F930E94651521
:102A7000BF91AF91A29F800D911DA39F900DB29F1A
:102A8000900D11240895A1E21A2EAA1BBB1BFD0173
:102A90000DC0AA1FBB1FEE1FFF1FA217B307E4073D
:102AA000F50720F0A21BB30BE40BF50B661F771F95
:102AB000881F991F1A9469F7609570958095909575
:102AC0009B01AC01BD01CF0108950E94A715A59FF0
:102AD000900DB49F900DA49F800D911D1124089519
:102AE0002F923F924F925F926F927F928F929F921E
:102AF000AF92BF92CF92DF92EF92FF920F931F930C
:102B0000CF93DF93CDB7DEB7CA1BDB0B0FB6F894BC
:102B1000DEBF0FBECDBF09942A88398848885F84FC
:102B20006E847D848C849B84AA84B984C884DF806D
:102B3000EE80FD800C811B81AA81B981CE0FD11D51
:102B40000FB6F894DEBF0FBECDBFED010895A29F72
:102B5000B001B39FC001A39F700D811D1124911D71
:102B6000B29F700D811D1124911D08955058BB27EF
:102B7000AA270E94CE150C94F9140E94EB1438F089
:102B80000E94F21420F039F49F3F19F426F40C94BB
:102B9000E8140EF4E095E7FB0C94E214E92F0E9490
:102BA0000A1558F3BA17620773078407950720F0D0
:102BB00079F4A6F50C942C150EF4E0950B2EBA2F93
:102BC000A02D0B01B90190010C01CA01A001112433
:102BD000FF27591B99F0593F50F4503E68F11A16DF
:102BE000F040A22F232F342F4427585FF3CF469570
:102BF00037952795A795F0405395C9F77EF41F1692
:102C0000BA0B620B730B840BBAF09150A1F0FF0F5B
:102C1000BB1F661F771F881FC2F70EC0BA0F621F47
:102C2000731F841F48F4879577956795B795F79537
:102C30009E3F08F0B0CF9395880F08F09927EE0FCC
:102C40009795879508950E9437160C94F9140E9461
:102C5000F21458F00E94EB1440F029F45F3F29F081
:102C60000C94E21451110C942D150C94E8140E944C
:102C70000A1568F39923B1F3552391F3951B550B6E
:102C8000BB27AA2762177307840738F09F5F5F4F3F
:102C9000220F331F441FAA1FA9F335D00E2E3AF07E
:102CA000E0E832D091505040E695001CCAF72BD096
:102CB000FE2F29D0660F771F881FBB1F26173707E7
:102CC0004807AB07B0E809F0BB0B802DBF01FF2719
:102CD00093585F4F3AF09E3F510578F00C94E21400
:102CE0000C942D155F3FE4F3983ED4F386957795C9
:102CF0006795B795F7959F5FC9F7880F911D9695D2
:102D0000879597F90895E1E0660F771F881FBB1F2D
:102D1000621773078407BA0720F0621B730B840BDA
:102D2000BA0BEE1F88F7E09508950E94121588F0FF
:102D30009F5798F0B92F9927B751B0F0E1F0660F7F
:102D4000771F881F991F1AF0BA95C9F714C0B130C0
:102D500091F00E942C15B1E008950C942C15672F6A
:102D6000782F8827B85F39F0B93FCCF386957795EF
:102D70006795B395D9F73EF49095809570956195D8
:102D80007F4F8F4F9F4F089597FB16F40E940817AF
:102D90000C94CB16E894F92F96EBFF2381F01216D2
:102DA00013061406440B9395F695879577956795CA
:102DB00057954040FF23B9F71BC0992708958823F2
:102DC00051F49850D2F7872B762F652F542F432F2D
:102DD000322F20E0B1F3121613061406440B882399
:102DE0003AF09A95440F551F661F771F881FCAF740
:102DF00055234AF4440F551F11F460FF04C06F5F60
:102E00007F4F8F4F9F4F880F9695879597F908951D
:102E10009095809570956095509540953095219549
:102E20003F4F4F4F5F4F6F4F7F4F8F4F9F4F0895D3
:102E30000E94511408F48FEF0895FA01EE0FFF1F5E
:102E4000309621053105A1F16115710561F48038D5
:102E5000BFE39B0749F168949038810561F08038A1
:102E6000BFEF9B0741F099234AF5FF3FE10531058C
:102E7000210519F1E8940894E795D901AA2329F4CA
:102E8000AB2FBE2FF85FD0F310C0FF5F70F4A69594
:102E9000E0F7F73950F019F0FF3A38F49F779F9335
:102EA0000DD00F9007FC9058089546F00C94E8144C
:102EB00060E070E080E89FE308954FE79F775F93BD
:102EC0004F933F932F930E941D182F913F914F9145
:102ED0005F910E9475140C947A170E945114880B0C
:102EE000990B089529F416F00C94E2140C942C1507
:102EF0000C94E8140E941215A8F39638A0F707F86E
:102F00000F92E8942BE33AEA48EB5FE70E948B14B8
:102F10000F920F920F924DB75EB70F920E946518F5
:102F2000E8E6F0E00E94AC174F915F91EF91FF91BE
:102F3000E595EE1FFF1F49F0FE57E0684427EE0FAE
:102F4000441FFA95E1F74195550B0E94DF170F904A
:102F500007FE0C94D3170895DF93CF931F930F931D
:102F6000FF92EF92DF927B018C01689406C0DA2E0B
:102F7000EF010E948814FE01E894A59125913591F6
:102F800045915591A6F3EF010E94CE15FE019701E0
:102F9000A801DA9469F7DF90EF90FF900F911F91ED
:102FA000CF91DF9108959B01AC0160E070E080E873
:102FB0009FE30C9423160C94E2140C9499180E942D
:102FC0001215D8F39923C9F3940F511DA3F391500F
:102FD000504094F059F0882332F0660F771F881F15
:102FE00091505040C1F79E3F51052CF7880F911D1D
:102FF0009695879597F908955F3FACF0983E9CF0C1
:10300000BB27869577956795B79508F4B16093953A
:10301000C1F7BB0F58F711F460FFE8CF6F5F7F4F28
:103020008F4F9F4FE3CF0C942D1516F00C949918E9
:103030000C94E81468940C94E2140E941215A8F3FE
:103040009923C1F3AEF3DF93CF931F930F93FF92B6
:10305000C92FDD2788232AF02197660F771F881F45
:10306000DAF720E030E040E85FEB9FE3883920F0BA
:10307000803E38F021968F770E94B715E0E9F0E0A6
:1030800004C00E94B715EDEBF0E00E94AC178B0175
:10309000BE01EC01FB2E6F5771097595771F880BE8
:1030A000990B0E94161428E132E741E35FE30E9486
:1030B0008814AF2D9801AE01FF900F911F91CF9111
:1030C000DF910E94CE150C94F914FA01DC01AA0FCD
:1030D000BB1F9B01AC01BF5728F42227332744278D
:1030E000507820C0B75190F4AB2F00244695379507
:1030F0002795011CA395D2F3002071F0220F331FF6
:10310000441FB395DAF30ED00C94B61561307105F7
:10311000A0E88A07B94630F49B01AC0166277727FF
:1031200088279078309621F020833183428353831F
:1031300008959F3F31F0915020F4879577956795DA
:10314000B795880F911D9695879597F90895B7FFC4
:103150000C9465150E946515821B930B0895DF93EF
:10316000CF931F930F939A9DF02D219FF00D8B9D70
:10317000F00D8A9DE02DF10D039FF00D029FE00DF3
:10318000F11D4E9DE00DF11D5E9DF00D4F9DF00D6A
:103190007F936F93BF92AF925F934F93D5010E943D
:1031A000A7158B01AC01D7010E94A715EB01E80F11
:1031B000F91FD6010E94FE182F913F91D6010E945F
:1031C000A715C60FD71FE81FF91FAF91BF910E9427
:1031D000FE182F913F910E94A715C60FD71FE81F19
:1031E000F91FD6010E94A715E60FF71F9801BE012F
:1031F000CF010F911F91CF91DF9108950E94A715E4
:10320000460F571FC81FD91F08F4319608956894B8
:1032100001C0E894F92FF12B12F00C943B19A0E0B7
:10322000B0E0E5E1F9E10C947615092E059422F45D
:103230000E949719112392F4F0E80F26FFEFE09413
:10324000F09400951095B094C094D094A194BF0AC6
:10325000CF0ADF0AEF0AFF0A0F0B1F0B0E94461965
:1032600007FC0E949719CDB7DEB7ECE00C949215DD
:10327000689401C0E8948F929F92CF93DF930E944D
:103280004619DF91CF919F908F90089588249924BB
:10329000F401E401B0E49F93AA279A158B049C04DF
:1032A000ED05FE05CF05D007A10798F4AD2FDC2F63
:1032B000CF2FFE2FE92D982C892E982F872F762F30
:1032C000652F542F432F322F2227B85031F7BF914B
:1032D00027C01B2EBF91BB27220F331F441F551F32
:1032E000661F771F881F991F881C991CEE1FFF1FE0
:1032F000CC1FDD1FAA1FBB1F8A149B04EC05FD0514
:10330000CE05DF05A007B10748F08A189B08EC0935
:10331000FD09CE09DF09A00BB10B21601A94E1F67B
:103320002EF49401AF01BE01CD01000C089560950B
:1033300070958095909530954095509521953F4F8B
:103340004F4F5F4F6F4F7F4F8F4F9F4F0895002E0E
:10335000083090F0982F872F762F652F542F432F0A
:10336000322F22270850F4CF220F331F441F551F3E
:10337000661F771F881F991F0A95B2F7002D0895C1
:1033800097FD1094002E083098F00850232F342F0A
:10339000452F562F672F782F892F912DF4CF159415
:1033A000979587957795679557954795379527957D
:1033B0000A95AAF71124002D08952A0D3B1D4C1DD6
:1033C0005D1D6E1D7F1D801F911F08952A193B09E9
:1033D0004C095D096E097F09800B910B089500244B
:1033E000A7FD00942A1730054005500560057005BB
:1033F000800590050895EE0FFF1F0590F491E02DD4
:1034000009940F931F93CF93DF938230910510F4AB
:1034100082E090E0E0917B03F0917C0330E020E0DB
:10342000B0E0A0E0309799F42115310509F44AC0C5
:10343000281B390B24303105D8F58A819B81611511
:10344000710589F1FB0193838283FE0111C04081E4
:1034500051810281138148175907E0F04817590735
:1034600099F4109761F012960C93129713961C938F
:103470003296CF01DF91CF911F910F910895009364
:103480007B0310937C03F4CF2115310551F04217D3
:10349000530738F0A901DB019A01BD01DF01F801F2
:1034A000C1CFEF01F9CF90937C0380937B03CDCF05
:1034B000FE01E20FF31F819391932250310939836A
:1034C0002883D7CF2091790330917A03232B41F4BD
:1034D000209102013091030130937A032093790304
:1034E00020910001309101012115310541F42DB7E2
:1034F0003EB74091040150910501241B350BE0912A
:103500007903F0917A03E217F307A0F42E1B3F0B27
:103510002817390778F0AC014E5F5F4F2417350745
:1035200048F04E0F5F1F50937A03409379038193C5
:1035300091939FCFF0E0E0E09CCFCF93DF93009793
:10354000E9F0FC01329713821282A0917B03B091C3
:103550007C03ED0130E020E01097A1F4208131815F
:10356000820F931F2091790330917A03281739072E
:1035700009F061C0F0937A03E0937903DF91CF9172
:103580000895EA01CE17DF07E8F54A815B819E01C5
:1035900041155105B1F7E901FB83EA83499159913E
:1035A000C40FD51FEC17FD0761F48081918102964D
:1035B000840F951FE90199838883828193819B837E
:1035C0008A83F0E0E0E012968D919C91139700972A
:1035D000B9F52D913C911197CD010296820F931F61
:1035E0002091790330917A032817390739F63097FB
:1035F00051F510927C0310927B03B0937A03A09351
:103600007903BCCFD383C28340815181840F951F3E
:10361000C817D90761F44E5F5F4F88819981480FC1
:10362000591F518340838A819B8193838283211513
:10363000310509F0B0CFF0937C03E0937B039ECF7C
:10364000FD01DC01C0CF13821282D7CFFB01DC0168
:103650004150504048F001900D920020C9F701C040
:103660001D9241505040E0F7089510E0C5EDD0E0C4
:1036700004C0FE010E94FB192196C63DD107C9F77F
:04368000F894FFCFEC
:1036840000007D03800000000000CB0128015801E8
:103694003302890167017B01000000003C060F062C
:1036A4006B0655010806F505E60500000000370421
:1036B400A40C3804A60C280D000000003704A20C4A
:1036C4003804EA0C770D0D0A006E616E00696E66AF
:1036D400006F766600424D5032383000564D4450EB
:1036E400565F317C315F564D4450560A00564D4466
:1036F40050525F00564D4450455F003A323A007CC8
:10370400005F564D44504500202A4300205061007C
:04371400206D000024
:00000001FF
